{
  "_format": "hh-sol-artifact-1",
  "contractName": "Inflow",
  "sourceName": "contracts/Inflow.sol",
  "abi": [
    {
      "anonymous": false,
      "inputs": [
        {
          "indexed": true,
          "internalType": "uint256",
          "name": "id",
          "type": "uint256"
        },
        {
          "indexed": true,
          "internalType": "string",
          "name": "metadata",
          "type": "string"
        }
      ],
      "name": "NewCourse",
      "type": "event"
    },
    {
      "inputs": [
        {
          "internalType": "uint256",
          "name": "",
          "type": "uint256"
        }
      ],
      "name": "courses",
      "outputs": [
        {
          "internalType": "address payable",
          "name": "author",
          "type": "address"
        },
        {
          "internalType": "uint256",
          "name": "id",
          "type": "uint256"
        },
        {
          "internalType": "uint256",
          "name": "price",
          "type": "uint256"
        },
        {
          "internalType": "string",
          "name": "metadata",
          "type": "string"
        },
        {
          "internalType": "bool",
          "name": "acceptTokens",
          "type": "bool"
        }
      ],
      "stateMutability": "view",
      "type": "function"
    },
    {
      "inputs": [
        {
          "internalType": "uint256",
          "name": "_price",
          "type": "uint256"
        },
        {
          "internalType": "string",
          "name": "_metadata",
          "type": "string"
        },
        {
          "internalType": "bool",
          "name": "_acceptTokens",
          "type": "bool"
        }
      ],
      "name": "createCourse",
      "outputs": [
        {
          "internalType": "uint256",
          "name": "",
          "type": "uint256"
        }
      ],
      "stateMutability": "nonpayable",
      "type": "function"
    },
    {
      "inputs": [
        {
          "internalType": "uint256",
          "name": "courseId",
          "type": "uint256"
        }
      ],
      "name": "getCourseById",
      "outputs": [
        {
          "components": [
            {
              "internalType": "address payable",
              "name": "author",
              "type": "address"
            },
            {
              "internalType": "uint256",
              "name": "id",
              "type": "uint256"
            },
            {
              "internalType": "uint256",
              "name": "price",
              "type": "uint256"
            },
            {
              "internalType": "string",
              "name": "metadata",
              "type": "string"
            },
            {
              "internalType": "bool",
              "name": "acceptTokens",
              "type": "bool"
            }
          ],
          "internalType": "struct Inflow.Course",
          "name": "",
          "type": "tuple"
        }
      ],
      "stateMutability": "view",
      "type": "function"
    },
    {
      "inputs": [],
      "name": "getCourses",
      "outputs": [
        {
          "components": [
            {
              "internalType": "address payable",
              "name": "author",
              "type": "address"
            },
            {
              "internalType": "uint256",
              "name": "id",
              "type": "uint256"
            },
            {
              "internalType": "uint256",
              "name": "price",
              "type": "uint256"
            },
            {
              "internalType": "string",
              "name": "metadata",
              "type": "string"
            },
            {
              "internalType": "bool",
              "name": "acceptTokens",
              "type": "bool"
            }
          ],
          "internalType": "struct Inflow.Course[]",
          "name": "",
          "type": "tuple[]"
        }
      ],
      "stateMutability": "view",
      "type": "function"
    },
    {
      "inputs": [],
      "name": "getCreatedCourses",
      "outputs": [
        {
          "components": [
            {
              "internalType": "address payable",
              "name": "author",
              "type": "address"
            },
            {
              "internalType": "uint256",
              "name": "id",
              "type": "uint256"
            },
            {
              "internalType": "uint256",
              "name": "price",
              "type": "uint256"
            },
            {
              "internalType": "string",
              "name": "metadata",
              "type": "string"
            },
            {
              "internalType": "bool",
              "name": "acceptTokens",
              "type": "bool"
            }
          ],
          "internalType": "struct Inflow.Course[]",
          "name": "",
          "type": "tuple[]"
        }
      ],
      "stateMutability": "view",
      "type": "function"
    },
    {
      "inputs": [],
      "name": "getEnrolledCourses",
      "outputs": [
        {
          "internalType": "uint256[]",
          "name": "",
          "type": "uint256[]"
        }
      ],
      "stateMutability": "view",
      "type": "function"
    },
    {
      "inputs": [
        {
          "internalType": "uint256",
          "name": "_id",
          "type": "uint256"
        }
      ],
      "name": "purchaseCourse",
      "outputs": [],
      "stateMutability": "payable",
      "type": "function"
    },
    {
      "inputs": [
        {
          "internalType": "address",
          "name": "",
          "type": "address"
        },
        {
          "internalType": "uint256",
          "name": "",
          "type": "uint256"
        }
      ],
      "name": "purchasedCourses",
      "outputs": [
        {
          "internalType": "uint256",
          "name": "",
          "type": "uint256"
        }
      ],
      "stateMutability": "view",
      "type": "function"
    }
  ],
  "bytecode": "0x608060405234801561001057600080fd5b506001600081905550611a4b806100286000396000f3fe60806040526004361061007b5760003560e01c806396f979d21161004e57806396f979d214610150578063cc12647914610191578063cd131938146101bc578063ea5b210f146101d85761007b565b80630502678e146100805780631a11cb23146100ab57806342a730be146100d65780634f7bd54f14610113575b600080fd5b34801561008c57600080fd5b50610095610215565b6040516100a29190611506565b60405180910390f35b3480156100b757600080fd5b506100c06102aa565b6040516100cd91906114e4565b60405180910390f35b3480156100e257600080fd5b506100fd60048036038101906100f89190611069565b6105ce565b60405161010a919061158a565b60405180910390f35b34801561011f57600080fd5b5061013a600480360381019061013591906110d6565b6105ff565b604051610147919061158a565b60405180910390f35b34801561015c57600080fd5b50610177600480360381019061017291906110a9565b6107ee565b60405161018895949392919061148a565b60405180910390f35b34801561019d57600080fd5b506101a66108d9565b6040516101b391906114e4565b60405180910390f35b6101d660048036038101906101d191906110a9565b610aca565b005b3480156101e457600080fd5b506101ff60048036038101906101fa91906110a9565b610d68565b60405161020c9190611568565b60405180910390f35b6060600460003373ffffffffffffffffffffffffffffffffffffffff1673ffffffffffffffffffffffffffffffffffffffff1681526020019081526020016000208054806020026020016040519081016040528092919081815260200182805480156102a057602002820191906000526020600020905b81548152602001906001019080831161028c575b5050505050905090565b606060006102b86001610eac565b905060008060005b83811015610361573373ffffffffffffffffffffffffffffffffffffffff16600360006001846102f091906116a5565b815260200190815260200160002060000160009054906101000a900473ffffffffffffffffffffffffffffffffffffffff1673ffffffffffffffffffffffffffffffffffffffff16141561034e5760018361034b91906116a5565b92505b80806103599061182e565b9150506102c0565b5060008267ffffffffffffffff81111561037e5761037d611904565b5b6040519080825280602002602001820160405280156103b757816020015b6103a4610ed0565b81526020019060019003908161039c5790505b50905060005b848110156105c3573373ffffffffffffffffffffffffffffffffffffffff16600360006001846103ed91906116a5565b815260200190815260200160002060000160009054906101000a900473ffffffffffffffffffffffffffffffffffffffff1673ffffffffffffffffffffffffffffffffffffffff1614156105b05760006003600060018461044e91906116a5565b81526020019081526020016000209050806040518060a00160405290816000820160009054906101000a900473ffffffffffffffffffffffffffffffffffffffff1673ffffffffffffffffffffffffffffffffffffffff1673ffffffffffffffffffffffffffffffffffffffff16815260200160018201548152602001600282015481526020016003820180546104e4906117cb565b80601f0160208091040260200160405190810160405280929190818152602001828054610510906117cb565b801561055d5780601f106105325761010080835404028352916020019161055d565b820191906000526020600020905b81548152906001019060200180831161054057829003601f168201915b505050505081526020016004820160009054906101000a900460ff161515151581525050838581518110610594576105936118d5565b5b60200260200101819052506001846105ac91906116a5565b9350505b80806105bb9061182e565b9150506103bd565b508094505050505090565b600460205281600052604060002081815481106105ea57600080fd5b90600052602060002001600091509150505481565b600061060b6001610eba565b60006106176001610eac565b9050610621610ed0565b33816000019073ffffffffffffffffffffffffffffffffffffffff16908173ffffffffffffffffffffffffffffffffffffffff1681525050818160200181815250508581604001818152505084816060018190525083816080019015159081151581525050806003600084815260200190815260200160002060008201518160000160006101000a81548173ffffffffffffffffffffffffffffffffffffffff021916908373ffffffffffffffffffffffffffffffffffffffff16021790555060208201518160010155604082015181600201556060820151816003019080519060200190610711929190610f17565b5060808201518160040160006101000a81548160ff021916908315150217905550905050600460003373ffffffffffffffffffffffffffffffffffffffff1673ffffffffffffffffffffffffffffffffffffffff16815260200190815260200160002081602001519080600181540180825580915050600190039060005260206000200160009091909190915055846040516107ad9190611473565b6040518091039020827f52ca1fe1e056b7a681723b1329f05b1c56be24b40e8a15cbc0b2040bc625579160405160405180910390a381925050509392505050565b60036020528060005260406000206000915090508060000160009054906101000a900473ffffffffffffffffffffffffffffffffffffffff1690806001015490806002015490806003018054610843906117cb565b80601f016020809104026020016040519081016040528092919081815260200182805461086f906117cb565b80156108bc5780601f10610891576101008083540402835291602001916108bc565b820191906000526020600020905b81548152906001019060200180831161089f57829003601f168201915b5050505050908060040160009054906101000a900460ff16905085565b606060006108e76001610eac565b905060008167ffffffffffffffff81111561090557610904611904565b5b60405190808252806020026020018201604052801561093e57816020015b61092b610ed0565b8152602001906001900390816109235790505b5090506000600190505b828111610ac157600360008281526020019081526020016000206040518060a00160405290816000820160009054906101000a900473ffffffffffffffffffffffffffffffffffffffff1673ffffffffffffffffffffffffffffffffffffffff1673ffffffffffffffffffffffffffffffffffffffff16815260200160018201548152602001600282015481526020016003820180546109e7906117cb565b80601f0160208091040260200160405190810160405280929190818152602001828054610a13906117cb565b8015610a605780601f10610a3557610100808354040283529160200191610a60565b820191906000526020600020905b815481529060010190602001808311610a4357829003601f168201915b505050505081526020016004820160009054906101000a900460ff16151515158152505082600183610a9291906116fb565b81518110610aa357610aa26118d5565b5b60200260200101819052508080610ab99061182e565b915050610948565b50809250505090565b60026000541415610b10576040517f08c379a0000000000000000000000000000000000000000000000000000000008152600401610b0790611548565b60405180910390fd5b60026000819055506000600360008381526020019081526020016000206040518060a00160405290816000820160009054906101000a900473ffffffffffffffffffffffffffffffffffffffff1673ffffffffffffffffffffffffffffffffffffffff1673ffffffffffffffffffffffffffffffffffffffff1681526020016001820154815260200160028201548152602001600382018054610bb2906117cb565b80601f0160208091040260200160405190810160405280929190818152602001828054610bde906117cb565b8015610c2b5780601f10610c0057610100808354040283529160200191610c2b565b820191906000526020600020905b815481529060010190602001808311610c0e57829003601f168201915b505050505081526020016004820160009054906101000a900460ff1615151515815250509050600081604001519050803414610c9c576040517f08c379a0000000000000000000000000000000000000000000000000000000008152600401610c9390611528565b60405180910390fd5b816000015173ffffffffffffffffffffffffffffffffffffffff166108fc349081150290604051600060405180830381858888f19350505050158015610ce6573d6000803e3d6000fd5b50600460003373ffffffffffffffffffffffffffffffffffffffff1673ffffffffffffffffffffffffffffffffffffffff16815260200190815260200160002082602001519080600181540180825580915050600190039060005260206000200160009091909190915055610d5b6002610eba565b5050600160008190555050565b610d70610ed0565b600360008381526020019081526020016000206040518060a00160405290816000820160009054906101000a900473ffffffffffffffffffffffffffffffffffffffff1673ffffffffffffffffffffffffffffffffffffffff1673ffffffffffffffffffffffffffffffffffffffff1681526020016001820154815260200160028201548152602001600382018054610e08906117cb565b80601f0160208091040260200160405190810160405280929190818152602001828054610e34906117cb565b8015610e815780601f10610e5657610100808354040283529160200191610e81565b820191906000526020600020905b815481529060010190602001808311610e6457829003601f168201915b505050505081526020016004820160009054906101000a900460ff1615151515815250509050919050565b600081600001549050919050565b6001816000016000828254019250508190555050565b6040518060a00160405280600073ffffffffffffffffffffffffffffffffffffffff1681526020016000815260200160008152602001606081526020016000151581525090565b828054610f23906117cb565b90600052602060002090601f016020900481019282610f455760008555610f8c565b82601f10610f5e57805160ff1916838001178555610f8c565b82800160010185558215610f8c579182015b82811115610f8b578251825591602001919060010190610f70565b5b509050610f999190610f9d565b5090565b5b80821115610fb6576000816000905550600101610f9e565b5090565b6000610fcd610fc8846115ca565b6115a5565b905082815260208101848484011115610fe957610fe8611938565b5b610ff4848285611789565b509392505050565b60008135905061100b816119d0565b92915050565b600081359050611020816119e7565b92915050565b600082601f83011261103b5761103a611933565b5b813561104b848260208601610fba565b91505092915050565b600081359050611063816119fe565b92915050565b600080604083850312156110805761107f611942565b5b600061108e85828601610ffc565b925050602061109f85828601611054565b9150509250929050565b6000602082840312156110bf576110be611942565b5b60006110cd84828501611054565b91505092915050565b6000806000606084860312156110ef576110ee611942565b5b60006110fd86828701611054565b935050602084013567ffffffffffffffff81111561111e5761111d61193d565b5b61112a86828701611026565b925050604061113b86828701611011565b9150509250925092565b60006111518383611369565b905092915050565b60006111658383611455565b60208301905092915050565b61117a81611741565b82525050565b61118981611741565b82525050565b600061119a8261161b565b6111a48185611656565b9350836020820285016111b6856115fb565b8060005b858110156111f257848403895281516111d38582611145565b94506111de8361163c565b925060208a019950506001810190506111ba565b50829750879550505050505092915050565b600061120f82611626565b6112198185611667565b93506112248361160b565b8060005b8381101561125557815161123c8882611159565b975061124783611649565b925050600181019050611228565b5085935050505092915050565b61126b81611753565b82525050565b61127a81611753565b82525050565b600061128b82611631565b6112958185611678565b93506112a5818560208601611798565b6112ae81611947565b840191505092915050565b60006112c482611631565b6112ce8185611689565b93506112de818560208601611798565b6112e781611947565b840191505092915050565b60006112fd82611631565b611307818561169a565b9350611317818560208601611798565b80840191505092915050565b6000611330602d83611689565b915061133b82611958565b604082019050919050565b6000611353601f83611689565b915061135e826119a7565b602082019050919050565b600060a0830160008301516113816000860182611171565b5060208301516113946020860182611455565b5060408301516113a76040860182611455565b50606083015184820360608601526113bf8282611280565b91505060808301516113d46080860182611262565b508091505092915050565b600060a0830160008301516113f76000860182611171565b50602083015161140a6020860182611455565b50604083015161141d6040860182611455565b50606083015184820360608601526114358282611280565b915050608083015161144a6080860182611262565b508091505092915050565b61145e8161177f565b82525050565b61146d8161177f565b82525050565b600061147f82846112f2565b915081905092915050565b600060a08201905061149f6000830188611180565b6114ac6020830187611464565b6114b96040830186611464565b81810360608301526114cb81856112b9565b90506114da6080830184611271565b9695505050505050565b600060208201905081810360008301526114fe818461118f565b905092915050565b600060208201905081810360008301526115208184611204565b905092915050565b6000602082019050818103600083015261154181611323565b9050919050565b6000602082019050818103600083015261156181611346565b9050919050565b6000602082019050818103600083015261158281846113df565b905092915050565b600060208201905061159f6000830184611464565b92915050565b60006115af6115c0565b90506115bb82826117fd565b919050565b6000604051905090565b600067ffffffffffffffff8211156115e5576115e4611904565b5b6115ee82611947565b9050602081019050919050565b6000819050602082019050919050565b6000819050602082019050919050565b600081519050919050565b600081519050919050565b600081519050919050565b6000602082019050919050565b6000602082019050919050565b600082825260208201905092915050565b600082825260208201905092915050565b600082825260208201905092915050565b600082825260208201905092915050565b600081905092915050565b60006116b08261177f565b91506116bb8361177f565b9250827fffffffffffffffffffffffffffffffffffffffffffffffffffffffffffffffff038211156116f0576116ef611877565b5b828201905092915050565b60006117068261177f565b91506117118361177f565b92508282101561172457611723611877565b5b828203905092915050565b600061173a8261175f565b9050919050565b600061174c8261175f565b9050919050565b60008115159050919050565b600073ffffffffffffffffffffffffffffffffffffffff82169050919050565b6000819050919050565b82818337600083830152505050565b60005b838110156117b657808201518184015260208101905061179b565b838111156117c5576000848401525b50505050565b600060028204905060018216806117e357607f821691505b602082108114156117f7576117f66118a6565b5b50919050565b61180682611947565b810181811067ffffffffffffffff8211171561182557611824611904565b5b80604052505050565b60006118398261177f565b91507fffffffffffffffffffffffffffffffffffffffffffffffffffffffffffffffff82141561186c5761186b611877565b5b600182019050919050565b7f4e487b7100000000000000000000000000000000000000000000000000000000600052601160045260246000fd5b7f4e487b7100000000000000000000000000000000000000000000000000000000600052602260045260246000fd5b7f4e487b7100000000000000000000000000000000000000000000000000000000600052603260045260246000fd5b7f4e487b7100000000000000000000000000000000000000000000000000000000600052604160045260246000fd5b600080fd5b600080fd5b600080fd5b600080fd5b6000601f19601f8301169050919050565b7f496e73756666696369656e742066756e647320746f207075726368617365207460008201527f68697320636f757273652e2e2e00000000000000000000000000000000000000602082015250565b7f5265656e7472616e637947756172643a207265656e7472616e742063616c6c00600082015250565b6119d98161172f565b81146119e457600080fd5b50565b6119f081611753565b81146119fb57600080fd5b50565b611a078161177f565b8114611a1257600080fd5b5056fea26469706673582212201023bc90329245cf9c56eedb62a5e59c8dbde2c365d2bac763404d4ce8a9c1cb64736f6c63430008070033",
  "linkReferences": {},
  "deployedLinkReferences": {}
}