{
  "_format": "hh-sol-artifact-1",
  "contractName": "Inflow",
  "sourceName": "contracts/Inflow.sol",
  "abi": [
    {
      "inputs": [
        {
          "internalType": "address",
          "name": "_addr",
          "type": "address"
        }
      ],
      "stateMutability": "nonpayable",
      "type": "constructor"
    },
    {
      "anonymous": false,
      "inputs": [
        {
          "indexed": true,
          "internalType": "uint256",
          "name": "id",
          "type": "uint256"
        },
        {
          "indexed": true,
          "internalType": "string",
          "name": "metadata",
          "type": "string"
        }
      ],
      "name": "NewCourse",
      "type": "event"
    },
    {
      "inputs": [
        {
          "internalType": "uint256",
          "name": "",
          "type": "uint256"
        }
      ],
      "name": "courses",
      "outputs": [
        {
          "internalType": "address payable",
          "name": "author",
          "type": "address"
        },
        {
          "internalType": "uint256",
          "name": "id",
          "type": "uint256"
        },
        {
          "internalType": "uint256",
          "name": "price",
          "type": "uint256"
        },
        {
          "internalType": "string",
          "name": "metadata",
          "type": "string"
        },
        {
          "internalType": "bool",
          "name": "acceptTokens",
          "type": "bool"
        }
      ],
      "stateMutability": "view",
      "type": "function"
    },
    {
      "inputs": [
        {
          "internalType": "uint256",
          "name": "_price",
          "type": "uint256"
        },
        {
          "internalType": "string",
          "name": "_metadata",
          "type": "string"
        },
        {
          "internalType": "bool",
          "name": "_acceptTokens",
          "type": "bool"
        }
      ],
      "name": "createCourse",
      "outputs": [
        {
          "internalType": "uint256",
          "name": "",
          "type": "uint256"
        }
      ],
      "stateMutability": "nonpayable",
      "type": "function"
    },
    {
      "inputs": [
        {
          "internalType": "uint256",
          "name": "courseId",
          "type": "uint256"
        }
      ],
      "name": "getCourseById",
      "outputs": [
        {
          "components": [
            {
              "internalType": "address payable",
              "name": "author",
              "type": "address"
            },
            {
              "internalType": "uint256",
              "name": "id",
              "type": "uint256"
            },
            {
              "internalType": "uint256",
              "name": "price",
              "type": "uint256"
            },
            {
              "internalType": "string",
              "name": "metadata",
              "type": "string"
            },
            {
              "internalType": "bool",
              "name": "acceptTokens",
              "type": "bool"
            }
          ],
          "internalType": "struct Inflow.Course",
          "name": "",
          "type": "tuple"
        }
      ],
      "stateMutability": "view",
      "type": "function"
    },
    {
      "inputs": [],
      "name": "getCourses",
      "outputs": [
        {
          "components": [
            {
              "internalType": "address payable",
              "name": "author",
              "type": "address"
            },
            {
              "internalType": "uint256",
              "name": "id",
              "type": "uint256"
            },
            {
              "internalType": "uint256",
              "name": "price",
              "type": "uint256"
            },
            {
              "internalType": "string",
              "name": "metadata",
              "type": "string"
            },
            {
              "internalType": "bool",
              "name": "acceptTokens",
              "type": "bool"
            }
          ],
          "internalType": "struct Inflow.Course[]",
          "name": "",
          "type": "tuple[]"
        }
      ],
      "stateMutability": "view",
      "type": "function"
    },
    {
      "inputs": [],
      "name": "getCreatedCourses",
      "outputs": [
        {
          "components": [
            {
              "internalType": "address payable",
              "name": "author",
              "type": "address"
            },
            {
              "internalType": "uint256",
              "name": "id",
              "type": "uint256"
            },
            {
              "internalType": "uint256",
              "name": "price",
              "type": "uint256"
            },
            {
              "internalType": "string",
              "name": "metadata",
              "type": "string"
            },
            {
              "internalType": "bool",
              "name": "acceptTokens",
              "type": "bool"
            }
          ],
          "internalType": "struct Inflow.Course[]",
          "name": "",
          "type": "tuple[]"
        }
      ],
      "stateMutability": "view",
      "type": "function"
    },
    {
      "inputs": [],
      "name": "getEnrolledCourses",
      "outputs": [
        {
          "internalType": "uint256[]",
          "name": "",
          "type": "uint256[]"
        }
      ],
      "stateMutability": "view",
      "type": "function"
    },
    {
      "inputs": [
        {
          "internalType": "uint256",
          "name": "_id",
          "type": "uint256"
        }
      ],
      "name": "purchaseCourse",
      "outputs": [],
      "stateMutability": "nonpayable",
      "type": "function"
    },
    {
      "inputs": [
        {
          "internalType": "uint256",
          "name": "_id",
          "type": "uint256"
        }
      ],
      "name": "purchaseWithSardine",
      "outputs": [],
      "stateMutability": "nonpayable",
      "type": "function"
    },
    {
      "inputs": [
        {
          "internalType": "address",
          "name": "",
          "type": "address"
        },
        {
          "internalType": "uint256",
          "name": "",
          "type": "uint256"
        }
      ],
      "name": "purchasedCourses",
      "outputs": [
        {
          "internalType": "uint256",
          "name": "",
          "type": "uint256"
        }
      ],
      "stateMutability": "view",
      "type": "function"
    },
    {
      "inputs": [],
      "name": "sardine",
      "outputs": [
        {
          "internalType": "contract IERC20",
          "name": "",
          "type": "address"
        }
      ],
      "stateMutability": "view",
      "type": "function"
    },
    {
      "inputs": [],
      "name": "usdc",
      "outputs": [
        {
          "internalType": "contract IERC20",
          "name": "",
          "type": "address"
        }
      ],
      "stateMutability": "view",
      "type": "function"
    }
  ],
  "bytecode": "0x60806040523480156200001157600080fd5b506040516200224b3803806200224b833981810160405281019062000037919062000146565b60016000819055507368ec573c119826db2eaea1efbfc2970cdac869c4600360006101000a81548173ffffffffffffffffffffffffffffffffffffffff021916908373ffffffffffffffffffffffffffffffffffffffff16021790555080600460006101000a81548173ffffffffffffffffffffffffffffffffffffffff021916908373ffffffffffffffffffffffffffffffffffffffff1602179055505062000178565b600080fd5b600073ffffffffffffffffffffffffffffffffffffffff82169050919050565b60006200010e82620000e1565b9050919050565b620001208162000101565b81146200012c57600080fd5b50565b600081519050620001408162000115565b92915050565b6000602082840312156200015f576200015e620000dc565b5b60006200016f848285016200012f565b91505092915050565b6120c380620001886000396000f3fe608060405234801561001057600080fd5b50600436106100a95760003560e01c806347b6c8041161007157806347b6c804146101545780634f7bd54f1461017257806396f979d2146101a2578063cc126479146101d6578063cd131938146101f4578063ea5b210f14610210576100a9565b80630502678e146100ae5780631a11cb23146100cc5780632f14288d146100ea5780633e413bee1461010657806342a730be14610124575b600080fd5b6100b6610240565b6040516100c3919061151d565b60405180910390f35b6100d46102d5565b6040516100e1919061176c565b60405180910390f35b61010460048036038101906100ff91906117ce565b6105f9565b005b61010e6109f4565b60405161011b919061185a565b60405180910390f35b61013e600480360381019061013991906118b3565b610a1a565b60405161014b9190611902565b60405180910390f35b61015c610a4b565b604051610169919061185a565b60405180910390f35b61018c60048036038101906101879190611a7e565b610a71565b6040516101999190611902565b60405180910390f35b6101bc60048036038101906101b791906117ce565b610c60565b6040516101cd959493929190611b55565b60405180910390f35b6101de610d4b565b6040516101eb919061176c565b60405180910390f35b61020e600480360381019061020991906117ce565b610f3c565b005b61022a600480360381019061022591906117ce565b611203565b6040516102379190611c25565b60405180910390f35b6060600660003373ffffffffffffffffffffffffffffffffffffffff1673ffffffffffffffffffffffffffffffffffffffff1681526020019081526020016000208054806020026020016040519081016040528092919081815260200182805480156102cb57602002820191906000526020600020905b8154815260200190600101908083116102b7575b5050505050905090565b606060006102e36001611347565b905060008060005b8381101561038c573373ffffffffffffffffffffffffffffffffffffffff166005600060018461031b9190611c76565b815260200190815260200160002060000160009054906101000a900473ffffffffffffffffffffffffffffffffffffffff1673ffffffffffffffffffffffffffffffffffffffff161415610379576001836103769190611c76565b92505b808061038490611ccc565b9150506102eb565b5060008267ffffffffffffffff8111156103a9576103a8611927565b5b6040519080825280602002602001820160405280156103e257816020015b6103cf61136b565b8152602001906001900390816103c75790505b50905060005b848110156105ee573373ffffffffffffffffffffffffffffffffffffffff16600560006001846104189190611c76565b815260200190815260200160002060000160009054906101000a900473ffffffffffffffffffffffffffffffffffffffff1673ffffffffffffffffffffffffffffffffffffffff1614156105db576000600560006001846104799190611c76565b81526020019081526020016000209050806040518060a00160405290816000820160009054906101000a900473ffffffffffffffffffffffffffffffffffffffff1673ffffffffffffffffffffffffffffffffffffffff1673ffffffffffffffffffffffffffffffffffffffff168152602001600182015481526020016002820154815260200160038201805461050f90611d44565b80601f016020809104026020016040519081016040528092919081815260200182805461053b90611d44565b80156105885780601f1061055d57610100808354040283529160200191610588565b820191906000526020600020905b81548152906001019060200180831161056b57829003601f168201915b505050505081526020016004820160009054906101000a900460ff1615151515815250508385815181106105bf576105be611d76565b5b60200260200101819052506001846105d79190611c76565b9350505b80806105e690611ccc565b9150506103e8565b508094505050505090565b6002600054141561063f576040517f08c379a000000000000000000000000000000000000000000000000000000000815260040161063690611df1565b60405180910390fd5b60026000819055506000600560008381526020019081526020016000206040518060a00160405290816000820160009054906101000a900473ffffffffffffffffffffffffffffffffffffffff1673ffffffffffffffffffffffffffffffffffffffff1673ffffffffffffffffffffffffffffffffffffffff16815260200160018201548152602001600282015481526020016003820180546106e190611d44565b80601f016020809104026020016040519081016040528092919081815260200182805461070d90611d44565b801561075a5780601f1061072f5761010080835404028352916020019161075a565b820191906000526020600020905b81548152906001019060200180831161073d57829003601f168201915b505050505081526020016004820160009054906101000a900460ff161515151581525050905080608001516107c4576040517f08c379a00000000000000000000000000000000000000000000000000000000081526004016107bb90611e83565b60405180910390fd5b6000600a600783604001516107d99190611ea3565b6107e39190611f2c565b90506000600a600384604001516107fa9190611ea3565b6108049190611f2c565b9050600360009054906101000a900473ffffffffffffffffffffffffffffffffffffffff1673ffffffffffffffffffffffffffffffffffffffff166323b872dd338560000151856040518463ffffffff1660e01b815260040161086993929190611f8d565b602060405180830381600087803b15801561088357600080fd5b505af1158015610897573d6000803e3d6000fd5b505050506040513d601f19601f820116820180604052508101906108bb9190611fd9565b50600460009054906101000a900473ffffffffffffffffffffffffffffffffffffffff1673ffffffffffffffffffffffffffffffffffffffff166323b872dd338560000151846040518463ffffffff1660e01b815260040161091f93929190611f8d565b602060405180830381600087803b15801561093957600080fd5b505af115801561094d573d6000803e3d6000fd5b505050506040513d601f19601f820116820180604052508101906109719190611fd9565b50600660003373ffffffffffffffffffffffffffffffffffffffff1673ffffffffffffffffffffffffffffffffffffffff168152602001908152602001600020836020015190806001815401808255809150506001900390600052602060002001600090919091909150556109e66002611355565b505050600160008190555050565b600360009054906101000a900473ffffffffffffffffffffffffffffffffffffffff1681565b60066020528160005260406000208181548110610a3657600080fd5b90600052602060002001600091509150505481565b600460009054906101000a900473ffffffffffffffffffffffffffffffffffffffff1681565b6000610a7d6001611355565b6000610a896001611347565b9050610a9361136b565b33816000019073ffffffffffffffffffffffffffffffffffffffff16908173ffffffffffffffffffffffffffffffffffffffff1681525050818160200181815250508581604001818152505084816060018190525083816080019015159081151581525050806005600084815260200190815260200160002060008201518160000160006101000a81548173ffffffffffffffffffffffffffffffffffffffff021916908373ffffffffffffffffffffffffffffffffffffffff16021790555060208201518160010155604082015181600201556060820151816003019080519060200190610b839291906113b2565b5060808201518160040160006101000a81548160ff021916908315150217905550905050600660003373ffffffffffffffffffffffffffffffffffffffff1673ffffffffffffffffffffffffffffffffffffffff1681526020019081526020016000208160200151908060018154018082558091505060019003906000526020600020016000909190919091505584604051610c1f9190612042565b6040518091039020827f52ca1fe1e056b7a681723b1329f05b1c56be24b40e8a15cbc0b2040bc625579160405160405180910390a381925050509392505050565b60056020528060005260406000206000915090508060000160009054906101000a900473ffffffffffffffffffffffffffffffffffffffff1690806001015490806002015490806003018054610cb590611d44565b80601f0160208091040260200160405190810160405280929190818152602001828054610ce190611d44565b8015610d2e5780601f10610d0357610100808354040283529160200191610d2e565b820191906000526020600020905b815481529060010190602001808311610d1157829003601f168201915b5050505050908060040160009054906101000a900460ff16905085565b60606000610d596001611347565b905060008167ffffffffffffffff811115610d7757610d76611927565b5b604051908082528060200260200182016040528015610db057816020015b610d9d61136b565b815260200190600190039081610d955790505b5090506000600190505b828111610f3357600560008281526020019081526020016000206040518060a00160405290816000820160009054906101000a900473ffffffffffffffffffffffffffffffffffffffff1673ffffffffffffffffffffffffffffffffffffffff1673ffffffffffffffffffffffffffffffffffffffff1681526020016001820154815260200160028201548152602001600382018054610e5990611d44565b80601f0160208091040260200160405190810160405280929190818152602001828054610e8590611d44565b8015610ed25780601f10610ea757610100808354040283529160200191610ed2565b820191906000526020600020905b815481529060010190602001808311610eb557829003601f168201915b505050505081526020016004820160009054906101000a900460ff16151515158152505082600183610f049190612059565b81518110610f1557610f14611d76565b5b60200260200101819052508080610f2b90611ccc565b915050610dba565b50809250505090565b60026000541415610f82576040517f08c379a0000000000000000000000000000000000000000000000000000000008152600401610f7990611df1565b60405180910390fd5b60026000819055506000600560008381526020019081526020016000206040518060a00160405290816000820160009054906101000a900473ffffffffffffffffffffffffffffffffffffffff1673ffffffffffffffffffffffffffffffffffffffff1673ffffffffffffffffffffffffffffffffffffffff168152602001600182015481526020016002820154815260200160038201805461102490611d44565b80601f016020809104026020016040519081016040528092919081815260200182805461105090611d44565b801561109d5780601f106110725761010080835404028352916020019161109d565b820191906000526020600020905b81548152906001019060200180831161108057829003601f168201915b505050505081526020016004820160009054906101000a900460ff1615151515815250509050600081604001519050600360009054906101000a900473ffffffffffffffffffffffffffffffffffffffff1673ffffffffffffffffffffffffffffffffffffffff166323b872dd338460000151846040518463ffffffff1660e01b815260040161112f93929190611f8d565b602060405180830381600087803b15801561114957600080fd5b505af115801561115d573d6000803e3d6000fd5b505050506040513d601f19601f820116820180604052508101906111819190611fd9565b50600660003373ffffffffffffffffffffffffffffffffffffffff1673ffffffffffffffffffffffffffffffffffffffff168152602001908152602001600020826020015190806001815401808255809150506001900390600052602060002001600090919091909150556111f66002611355565b5050600160008190555050565b61120b61136b565b600560008381526020019081526020016000206040518060a00160405290816000820160009054906101000a900473ffffffffffffffffffffffffffffffffffffffff1673ffffffffffffffffffffffffffffffffffffffff1673ffffffffffffffffffffffffffffffffffffffff16815260200160018201548152602001600282015481526020016003820180546112a390611d44565b80601f01602080910402602001604051908101604052809291908181526020018280546112cf90611d44565b801561131c5780601f106112f15761010080835404028352916020019161131c565b820191906000526020600020905b8154815290600101906020018083116112ff57829003601f168201915b505050505081526020016004820160009054906101000a900460ff1615151515815250509050919050565b600081600001549050919050565b6001816000016000828254019250508190555050565b6040518060a00160405280600073ffffffffffffffffffffffffffffffffffffffff1681526020016000815260200160008152602001606081526020016000151581525090565b8280546113be90611d44565b90600052602060002090601f0160209004810192826113e05760008555611427565b82601f106113f957805160ff1916838001178555611427565b82800160010185558215611427579182015b8281111561142657825182559160200191906001019061140b565b5b5090506114349190611438565b5090565b5b80821115611451576000816000905550600101611439565b5090565b600081519050919050565b600082825260208201905092915050565b6000819050602082019050919050565b6000819050919050565b61149481611481565b82525050565b60006114a6838361148b565b60208301905092915050565b6000602082019050919050565b60006114ca82611455565b6114d48185611460565b93506114df83611471565b8060005b838110156115105781516114f7888261149a565b9750611502836114b2565b9250506001810190506114e3565b5085935050505092915050565b6000602082019050818103600083015261153781846114bf565b905092915050565b600081519050919050565b600082825260208201905092915050565b6000819050602082019050919050565b600073ffffffffffffffffffffffffffffffffffffffff82169050919050565b60006115968261156b565b9050919050565b6115a68161158b565b82525050565b600081519050919050565b600082825260208201905092915050565b60005b838110156115e65780820151818401526020810190506115cb565b838111156115f5576000848401525b50505050565b6000601f19601f8301169050919050565b6000611617826115ac565b61162181856115b7565b93506116318185602086016115c8565b61163a816115fb565b840191505092915050565b60008115159050919050565b61165a81611645565b82525050565b600060a083016000830151611678600086018261159d565b50602083015161168b602086018261148b565b50604083015161169e604086018261148b565b50606083015184820360608601526116b6828261160c565b91505060808301516116cb6080860182611651565b508091505092915050565b60006116e28383611660565b905092915050565b6000602082019050919050565b60006117028261153f565b61170c818561154a565b93508360208202850161171e8561155b565b8060005b8581101561175a578484038952815161173b85826116d6565b9450611746836116ea565b925060208a01995050600181019050611722565b50829750879550505050505092915050565b6000602082019050818103600083015261178681846116f7565b905092915050565b6000604051905090565b600080fd5b600080fd5b6117ab81611481565b81146117b657600080fd5b50565b6000813590506117c8816117a2565b92915050565b6000602082840312156117e4576117e3611798565b5b60006117f2848285016117b9565b91505092915050565b6000819050919050565b600061182061181b6118168461156b565b6117fb565b61156b565b9050919050565b600061183282611805565b9050919050565b600061184482611827565b9050919050565b61185481611839565b82525050565b600060208201905061186f600083018461184b565b92915050565b60006118808261156b565b9050919050565b61189081611875565b811461189b57600080fd5b50565b6000813590506118ad81611887565b92915050565b600080604083850312156118ca576118c9611798565b5b60006118d88582860161189e565b92505060206118e9858286016117b9565b9150509250929050565b6118fc81611481565b82525050565b600060208201905061191760008301846118f3565b92915050565b600080fd5b600080fd5b7f4e487b7100000000000000000000000000000000000000000000000000000000600052604160045260246000fd5b61195f826115fb565b810181811067ffffffffffffffff8211171561197e5761197d611927565b5b80604052505050565b600061199161178e565b905061199d8282611956565b919050565b600067ffffffffffffffff8211156119bd576119bc611927565b5b6119c6826115fb565b9050602081019050919050565b82818337600083830152505050565b60006119f56119f0846119a2565b611987565b905082815260208101848484011115611a1157611a10611922565b5b611a1c8482856119d3565b509392505050565b600082601f830112611a3957611a3861191d565b5b8135611a498482602086016119e2565b91505092915050565b611a5b81611645565b8114611a6657600080fd5b50565b600081359050611a7881611a52565b92915050565b600080600060608486031215611a9757611a96611798565b5b6000611aa5868287016117b9565b935050602084013567ffffffffffffffff811115611ac657611ac561179d565b5b611ad286828701611a24565b9250506040611ae386828701611a69565b9150509250925092565b611af68161158b565b82525050565b600082825260208201905092915050565b6000611b18826115ac565b611b228185611afc565b9350611b328185602086016115c8565b611b3b816115fb565b840191505092915050565b611b4f81611645565b82525050565b600060a082019050611b6a6000830188611aed565b611b7760208301876118f3565b611b8460408301866118f3565b8181036060830152611b968185611b0d565b9050611ba56080830184611b46565b9695505050505050565b600060a083016000830151611bc7600086018261159d565b506020830151611bda602086018261148b565b506040830151611bed604086018261148b565b5060608301518482036060860152611c05828261160c565b9150506080830151611c1a6080860182611651565b508091505092915050565b60006020820190508181036000830152611c3f8184611baf565b905092915050565b7f4e487b7100000000000000000000000000000000000000000000000000000000600052601160045260246000fd5b6000611c8182611481565b9150611c8c83611481565b9250827fffffffffffffffffffffffffffffffffffffffffffffffffffffffffffffffff03821115611cc157611cc0611c47565b5b828201905092915050565b6000611cd782611481565b91507fffffffffffffffffffffffffffffffffffffffffffffffffffffffffffffffff821415611d0a57611d09611c47565b5b600182019050919050565b7f4e487b7100000000000000000000000000000000000000000000000000000000600052602260045260246000fd5b60006002820490506001821680611d5c57607f821691505b60208210811415611d7057611d6f611d15565b5b50919050565b7f4e487b7100000000000000000000000000000000000000000000000000000000600052603260045260246000fd5b7f5265656e7472616e637947756172643a207265656e7472616e742063616c6c00600082015250565b6000611ddb601f83611afc565b9150611de682611da5565b602082019050919050565b60006020820190508181036000830152611e0a81611dce565b9050919050565b7f5468697320636f7572736520646f65736e27742061636365707420736172646960008201527f6e6520746f6b656e730000000000000000000000000000000000000000000000602082015250565b6000611e6d602983611afc565b9150611e7882611e11565b604082019050919050565b60006020820190508181036000830152611e9c81611e60565b9050919050565b6000611eae82611481565b9150611eb983611481565b9250817fffffffffffffffffffffffffffffffffffffffffffffffffffffffffffffffff0483118215151615611ef257611ef1611c47565b5b828202905092915050565b7f4e487b7100000000000000000000000000000000000000000000000000000000600052601260045260246000fd5b6000611f3782611481565b9150611f4283611481565b925082611f5257611f51611efd565b5b828204905092915050565b611f6681611875565b82525050565b6000611f7782611827565b9050919050565b611f8781611f6c565b82525050565b6000606082019050611fa26000830186611f5d565b611faf6020830185611f7e565b611fbc60408301846118f3565b949350505050565b600081519050611fd381611a52565b92915050565b600060208284031215611fef57611fee611798565b5b6000611ffd84828501611fc4565b91505092915050565b600081905092915050565b600061201c826115ac565b6120268185612006565b93506120368185602086016115c8565b80840191505092915050565b600061204e8284612011565b915081905092915050565b600061206482611481565b915061206f83611481565b92508282101561208257612081611c47565b5b82820390509291505056fea264697066735822122053d011e3839b56a35f91e3444e97e0ea312717c226c000f259b863c4522c0d3764736f6c63430008080033",
  "linkReferences": {},
  "deployedLinkReferences": {}
}