{
  "_format": "hh-sol-artifact-1",
  "contractName": "Sardine",
  "sourceName": "contracts/InflowToken.sol",
  "abi": [
    {
      "anonymous": false,
      "inputs": [
        {
          "indexed": false,
          "internalType": "address",
          "name": "previousAdmin",
          "type": "address"
        },
        {
          "indexed": false,
          "internalType": "address",
          "name": "newAdmin",
          "type": "address"
        }
      ],
      "name": "AdminChanged",
      "type": "event"
    },
    {
      "anonymous": false,
      "inputs": [
        {
          "indexed": true,
          "internalType": "address",
          "name": "owner",
          "type": "address"
        },
        {
          "indexed": true,
          "internalType": "address",
          "name": "spender",
          "type": "address"
        },
        {
          "indexed": false,
          "internalType": "uint256",
          "name": "value",
          "type": "uint256"
        }
      ],
      "name": "Approval",
      "type": "event"
    },
    {
      "anonymous": false,
      "inputs": [
        {
          "indexed": true,
          "internalType": "address",
          "name": "beacon",
          "type": "address"
        }
      ],
      "name": "BeaconUpgraded",
      "type": "event"
    },
    {
      "anonymous": false,
      "inputs": [
        {
          "indexed": true,
          "internalType": "address",
          "name": "previousOwner",
          "type": "address"
        },
        {
          "indexed": true,
          "internalType": "address",
          "name": "newOwner",
          "type": "address"
        }
      ],
      "name": "OwnershipTransferred",
      "type": "event"
    },
    {
      "anonymous": false,
      "inputs": [
        {
          "indexed": true,
          "internalType": "address",
          "name": "from",
          "type": "address"
        },
        {
          "indexed": true,
          "internalType": "address",
          "name": "to",
          "type": "address"
        },
        {
          "indexed": false,
          "internalType": "uint256",
          "name": "value",
          "type": "uint256"
        }
      ],
      "name": "Transfer",
      "type": "event"
    },
    {
      "anonymous": false,
      "inputs": [
        {
          "indexed": true,
          "internalType": "address",
          "name": "implementation",
          "type": "address"
        }
      ],
      "name": "Upgraded",
      "type": "event"
    },
    {
      "inputs": [
        {
          "internalType": "address",
          "name": "owner",
          "type": "address"
        },
        {
          "internalType": "address",
          "name": "spender",
          "type": "address"
        }
      ],
      "name": "allowance",
      "outputs": [
        {
          "internalType": "uint256",
          "name": "",
          "type": "uint256"
        }
      ],
      "stateMutability": "view",
      "type": "function"
    },
    {
      "inputs": [
        {
          "internalType": "address",
          "name": "spender",
          "type": "address"
        },
        {
          "internalType": "uint256",
          "name": "amount",
          "type": "uint256"
        }
      ],
      "name": "approve",
      "outputs": [
        {
          "internalType": "bool",
          "name": "",
          "type": "bool"
        }
      ],
      "stateMutability": "nonpayable",
      "type": "function"
    },
    {
      "inputs": [
        {
          "internalType": "address",
          "name": "account",
          "type": "address"
        }
      ],
      "name": "balanceOf",
      "outputs": [
        {
          "internalType": "uint256",
          "name": "",
          "type": "uint256"
        }
      ],
      "stateMutability": "view",
      "type": "function"
    },
    {
      "inputs": [
        {
          "internalType": "uint256",
          "name": "amount",
          "type": "uint256"
        }
      ],
      "name": "burn",
      "outputs": [],
      "stateMutability": "nonpayable",
      "type": "function"
    },
    {
      "inputs": [
        {
          "internalType": "address",
          "name": "account",
          "type": "address"
        },
        {
          "internalType": "uint256",
          "name": "amount",
          "type": "uint256"
        }
      ],
      "name": "burnFrom",
      "outputs": [],
      "stateMutability": "nonpayable",
      "type": "function"
    },
    {
      "inputs": [],
      "name": "decimals",
      "outputs": [
        {
          "internalType": "uint8",
          "name": "",
          "type": "uint8"
        }
      ],
      "stateMutability": "view",
      "type": "function"
    },
    {
      "inputs": [
        {
          "internalType": "address",
          "name": "spender",
          "type": "address"
        },
        {
          "internalType": "uint256",
          "name": "subtractedValue",
          "type": "uint256"
        }
      ],
      "name": "decreaseAllowance",
      "outputs": [
        {
          "internalType": "bool",
          "name": "",
          "type": "bool"
        }
      ],
      "stateMutability": "nonpayable",
      "type": "function"
    },
    {
      "inputs": [
        {
          "internalType": "address",
          "name": "spender",
          "type": "address"
        },
        {
          "internalType": "uint256",
          "name": "addedValue",
          "type": "uint256"
        }
      ],
      "name": "increaseAllowance",
      "outputs": [
        {
          "internalType": "bool",
          "name": "",
          "type": "bool"
        }
      ],
      "stateMutability": "nonpayable",
      "type": "function"
    },
    {
      "inputs": [],
      "name": "initialize",
      "outputs": [],
      "stateMutability": "nonpayable",
      "type": "function"
    },
    {
      "inputs": [
        {
          "internalType": "address",
          "name": "to",
          "type": "address"
        },
        {
          "internalType": "uint256",
          "name": "amount",
          "type": "uint256"
        }
      ],
      "name": "mint",
      "outputs": [],
      "stateMutability": "nonpayable",
      "type": "function"
    },
    {
      "inputs": [],
      "name": "name",
      "outputs": [
        {
          "internalType": "string",
          "name": "",
          "type": "string"
        }
      ],
      "stateMutability": "view",
      "type": "function"
    },
    {
      "inputs": [],
      "name": "owner",
      "outputs": [
        {
          "internalType": "address",
          "name": "",
          "type": "address"
        }
      ],
      "stateMutability": "view",
      "type": "function"
    },
    {
      "inputs": [],
      "name": "renounceOwnership",
      "outputs": [],
      "stateMutability": "nonpayable",
      "type": "function"
    },
    {
      "inputs": [],
      "name": "symbol",
      "outputs": [
        {
          "internalType": "string",
          "name": "",
          "type": "string"
        }
      ],
      "stateMutability": "view",
      "type": "function"
    },
    {
      "inputs": [],
      "name": "totalSupply",
      "outputs": [
        {
          "internalType": "uint256",
          "name": "",
          "type": "uint256"
        }
      ],
      "stateMutability": "view",
      "type": "function"
    },
    {
      "inputs": [
        {
          "internalType": "address",
          "name": "recipient",
          "type": "address"
        },
        {
          "internalType": "uint256",
          "name": "amount",
          "type": "uint256"
        }
      ],
      "name": "transfer",
      "outputs": [
        {
          "internalType": "bool",
          "name": "",
          "type": "bool"
        }
      ],
      "stateMutability": "nonpayable",
      "type": "function"
    },
    {
      "inputs": [
        {
          "internalType": "address",
          "name": "sender",
          "type": "address"
        },
        {
          "internalType": "address",
          "name": "recipient",
          "type": "address"
        },
        {
          "internalType": "uint256",
          "name": "amount",
          "type": "uint256"
        }
      ],
      "name": "transferFrom",
      "outputs": [
        {
          "internalType": "bool",
          "name": "",
          "type": "bool"
        }
      ],
      "stateMutability": "nonpayable",
      "type": "function"
    },
    {
      "inputs": [
        {
          "internalType": "address",
          "name": "newOwner",
          "type": "address"
        }
      ],
      "name": "transferOwnership",
      "outputs": [],
      "stateMutability": "nonpayable",
      "type": "function"
    },
    {
      "inputs": [
        {
          "internalType": "address",
          "name": "newImplementation",
          "type": "address"
        }
      ],
      "name": "upgradeTo",
      "outputs": [],
      "stateMutability": "nonpayable",
      "type": "function"
    },
    {
      "inputs": [
        {
          "internalType": "address",
          "name": "newImplementation",
          "type": "address"
        },
        {
          "internalType": "bytes",
          "name": "data",
          "type": "bytes"
        }
      ],
      "name": "upgradeToAndCall",
      "outputs": [],
      "stateMutability": "payable",
      "type": "function"
    }
  ],
  "bytecode": "0x60a06040523073ffffffffffffffffffffffffffffffffffffffff1660809073ffffffffffffffffffffffffffffffffffffffff1660601b81525034801561004657600080fd5b5060805160601c613ae461007a6000396000818161067a015281816107090152818161094d01526109dc0152613ae46000f3fe60806040526004361061011f5760003560e01c806370a08231116100a057806395d89b411161006457806395d89b41146103b2578063a457c2d7146103dd578063a9059cbb1461041a578063dd62ed3e14610457578063f2fde38b146104945761011f565b806370a08231146102f3578063715018a61461033057806379cc6790146103475780638129fc1c146103705780638da5cb5b146103875761011f565b80633659cfe6116100e75780633659cfe61461021f578063395093511461024857806340c10f191461028557806342966c68146102ae5780634f1ef286146102d75761011f565b806306fdde0314610124578063095ea7b31461014f57806318160ddd1461018c57806323b872dd146101b7578063313ce567146101f4575b600080fd5b34801561013057600080fd5b506101396104bd565b6040516101469190612864565b60405180910390f35b34801561015b57600080fd5b506101766004803603810190610171919061292e565b61054f565b6040516101839190612989565b60405180910390f35b34801561019857600080fd5b506101a161056d565b6040516101ae91906129b3565b60405180910390f35b3480156101c357600080fd5b506101de60048036038101906101d991906129ce565b610577565b6040516101eb9190612989565b60405180910390f35b34801561020057600080fd5b5061020961066f565b6040516102169190612a3d565b60405180910390f35b34801561022b57600080fd5b5061024660048036038101906102419190612a58565b610678565b005b34801561025457600080fd5b5061026f600480360381019061026a919061292e565b610801565b60405161027c9190612989565b60405180910390f35b34801561029157600080fd5b506102ac60048036038101906102a7919061292e565b6108ad565b005b3480156102ba57600080fd5b506102d560048036038101906102d09190612a85565b610937565b005b6102f160048036038101906102ec9190612be7565b61094b565b005b3480156102ff57600080fd5b5061031a60048036038101906103159190612a58565b610a88565b60405161032791906129b3565b60405180910390f35b34801561033c57600080fd5b50610345610ad1565b005b34801561035357600080fd5b5061036e6004803603810190610369919061292e565b610b59565b005b34801561037c57600080fd5b50610385610bd4565b005b34801561039357600080fd5b5061039c610d64565b6040516103a99190612c52565b60405180910390f35b3480156103be57600080fd5b506103c7610d8e565b6040516103d49190612864565b60405180910390f35b3480156103e957600080fd5b5061040460048036038101906103ff919061292e565b610e20565b6040516104119190612989565b60405180910390f35b34801561042657600080fd5b50610441600480360381019061043c919061292e565b610f0b565b60405161044e9190612989565b60405180910390f35b34801561046357600080fd5b5061047e60048036038101906104799190612c6d565b610f29565b60405161048b91906129b3565b60405180910390f35b3480156104a057600080fd5b506104bb60048036038101906104b69190612a58565b610fb0565b005b6060603680546104cc90612cdc565b80601f01602080910402602001604051908101604052809291908181526020018280546104f890612cdc565b80156105455780601f1061051a57610100808354040283529160200191610545565b820191906000526020600020905b81548152906001019060200180831161052857829003601f168201915b5050505050905090565b600061056361055c6110a8565b84846110b0565b6001905092915050565b6000603554905090565b600061058484848461127b565b6000603460008673ffffffffffffffffffffffffffffffffffffffff1673ffffffffffffffffffffffffffffffffffffffff16815260200190815260200160002060006105cf6110a8565b73ffffffffffffffffffffffffffffffffffffffff1673ffffffffffffffffffffffffffffffffffffffff1681526020019081526020016000205490508281101561064f576040517f08c379a000000000000000000000000000000000000000000000000000000000815260040161064690612d80565b60405180910390fd5b6106638561065b6110a8565b8584036110b0565b60019150509392505050565b60006006905090565b7f000000000000000000000000000000000000000000000000000000000000000073ffffffffffffffffffffffffffffffffffffffff163073ffffffffffffffffffffffffffffffffffffffff161415610707576040517f08c379a00000000000000000000000000000000000000000000000000000000081526004016106fe90612e12565b60405180910390fd5b7f000000000000000000000000000000000000000000000000000000000000000073ffffffffffffffffffffffffffffffffffffffff166107466114ff565b73ffffffffffffffffffffffffffffffffffffffff161461079c576040517f08c379a000000000000000000000000000000000000000000000000000000000815260040161079390612ea4565b60405180910390fd5b6107a581611556565b6107fe81600067ffffffffffffffff8111156107c4576107c3612abc565b5b6040519080825280601f01601f1916602001820160405280156107f65781602001600182028036833780820191505090505b5060006115d5565b50565b60006108a361080e6110a8565b84846034600061081c6110a8565b73ffffffffffffffffffffffffffffffffffffffff1673ffffffffffffffffffffffffffffffffffffffff16815260200190815260200160002060008873ffffffffffffffffffffffffffffffffffffffff1673ffffffffffffffffffffffffffffffffffffffff1681526020019081526020016000205461089e9190612ef3565b6110b0565b6001905092915050565b6108b56110a8565b73ffffffffffffffffffffffffffffffffffffffff166108d3610d64565b73ffffffffffffffffffffffffffffffffffffffff1614610929576040517f08c379a000000000000000000000000000000000000000000000000000000000815260040161092090612f95565b60405180910390fd5b61093382826117a6565b5050565b6109486109426110a8565b82611907565b50565b7f000000000000000000000000000000000000000000000000000000000000000073ffffffffffffffffffffffffffffffffffffffff163073ffffffffffffffffffffffffffffffffffffffff1614156109da576040517f08c379a00000000000000000000000000000000000000000000000000000000081526004016109d190612e12565b60405180910390fd5b7f000000000000000000000000000000000000000000000000000000000000000073ffffffffffffffffffffffffffffffffffffffff16610a196114ff565b73ffffffffffffffffffffffffffffffffffffffff1614610a6f576040517f08c379a0000000000000000000000000000000000000000000000000000000008152600401610a6690612ea4565b60405180910390fd5b610a7882611556565b610a84828260016115d5565b5050565b6000603360008373ffffffffffffffffffffffffffffffffffffffff1673ffffffffffffffffffffffffffffffffffffffff168152602001908152602001600020549050919050565b610ad96110a8565b73ffffffffffffffffffffffffffffffffffffffff16610af7610d64565b73ffffffffffffffffffffffffffffffffffffffff1614610b4d576040517f08c379a0000000000000000000000000000000000000000000000000000000008152600401610b4490612f95565b60405180910390fd5b610b576000611ae0565b565b6000610b6c83610b676110a8565b610f29565b905081811015610bb1576040517f08c379a0000000000000000000000000000000000000000000000000000000008152600401610ba890613027565b60405180910390fd5b610bc583610bbd6110a8565b8484036110b0565b610bcf8383611907565b505050565b600060019054906101000a900460ff1680610bfa575060008054906101000a900460ff16155b610c39576040517f08c379a0000000000000000000000000000000000000000000000000000000008152600401610c30906130b9565b60405180910390fd5b60008060019054906101000a900460ff161590508015610c89576001600060016101000a81548160ff02191690831515021790555060016000806101000a81548160ff0219169083151502179055505b610cfd6040518060400160405280600781526020017f53617264696e65000000000000000000000000000000000000000000000000008152506040518060400160405280600381526020017f5352440000000000000000000000000000000000000000000000000000000000815250611ba6565b610d05611c93565b610d0d611d7c565b610d15611e65565b610d4033610d2161066f565b600a610d2d919061320c565b62989680610d3b9190613257565b6117a6565b8015610d615760008060016101000a81548160ff0219169083151502179055505b50565b6000609760009054906101000a900473ffffffffffffffffffffffffffffffffffffffff16905090565b606060378054610d9d90612cdc565b80601f0160208091040260200160405190810160405280929190818152602001828054610dc990612cdc565b8015610e165780601f10610deb57610100808354040283529160200191610e16565b820191906000526020600020905b815481529060010190602001808311610df957829003601f168201915b5050505050905090565b60008060346000610e2f6110a8565b73ffffffffffffffffffffffffffffffffffffffff1673ffffffffffffffffffffffffffffffffffffffff16815260200190815260200160002060008573ffffffffffffffffffffffffffffffffffffffff1673ffffffffffffffffffffffffffffffffffffffff16815260200190815260200160002054905082811015610eec576040517f08c379a0000000000000000000000000000000000000000000000000000000008152600401610ee390613323565b60405180910390fd5b610f00610ef76110a8565b858584036110b0565b600191505092915050565b6000610f1f610f186110a8565b848461127b565b6001905092915050565b6000603460008473ffffffffffffffffffffffffffffffffffffffff1673ffffffffffffffffffffffffffffffffffffffff16815260200190815260200160002060008373ffffffffffffffffffffffffffffffffffffffff1673ffffffffffffffffffffffffffffffffffffffff16815260200190815260200160002054905092915050565b610fb86110a8565b73ffffffffffffffffffffffffffffffffffffffff16610fd6610d64565b73ffffffffffffffffffffffffffffffffffffffff161461102c576040517f08c379a000000000000000000000000000000000000000000000000000000000815260040161102390612f95565b60405180910390fd5b600073ffffffffffffffffffffffffffffffffffffffff168173ffffffffffffffffffffffffffffffffffffffff16141561109c576040517f08c379a0000000000000000000000000000000000000000000000000000000008152600401611093906133b5565b60405180910390fd5b6110a581611ae0565b50565b600033905090565b600073ffffffffffffffffffffffffffffffffffffffff168373ffffffffffffffffffffffffffffffffffffffff161415611120576040517f08c379a000000000000000000000000000000000000000000000000000000000815260040161111790613447565b60405180910390fd5b600073ffffffffffffffffffffffffffffffffffffffff168273ffffffffffffffffffffffffffffffffffffffff161415611190576040517f08c379a0000000000000000000000000000000000000000000000000000000008152600401611187906134d9565b60405180910390fd5b80603460008573ffffffffffffffffffffffffffffffffffffffff1673ffffffffffffffffffffffffffffffffffffffff16815260200190815260200160002060008473ffffffffffffffffffffffffffffffffffffffff1673ffffffffffffffffffffffffffffffffffffffff168152602001908152602001600020819055508173ffffffffffffffffffffffffffffffffffffffff168373ffffffffffffffffffffffffffffffffffffffff167f8c5be1e5ebec7d5bd14f71427d1e84f3dd0314c0f7b2291e5b200ac8c7c3b9258360405161126e91906129b3565b60405180910390a3505050565b600073ffffffffffffffffffffffffffffffffffffffff168373ffffffffffffffffffffffffffffffffffffffff1614156112eb576040517f08c379a00000000000000000000000000000000000000000000000000000000081526004016112e29061356b565b60405180910390fd5b600073ffffffffffffffffffffffffffffffffffffffff168273ffffffffffffffffffffffffffffffffffffffff16141561135b576040517f08c379a0000000000000000000000000000000000000000000000000000000008152600401611352906135fd565b60405180910390fd5b611366838383611f4e565b6000603360008573ffffffffffffffffffffffffffffffffffffffff1673ffffffffffffffffffffffffffffffffffffffff168152602001908152602001600020549050818110156113ed576040517f08c379a00000000000000000000000000000000000000000000000000000000081526004016113e49061368f565b60405180910390fd5b818103603360008673ffffffffffffffffffffffffffffffffffffffff1673ffffffffffffffffffffffffffffffffffffffff1681526020019081526020016000208190555081603360008573ffffffffffffffffffffffffffffffffffffffff1673ffffffffffffffffffffffffffffffffffffffff16815260200190815260200160002060008282546114829190612ef3565b925050819055508273ffffffffffffffffffffffffffffffffffffffff168473ffffffffffffffffffffffffffffffffffffffff167fddf252ad1be2c89b69c2b068fc378daa952ba7f163c4a11628f55a4df523b3ef846040516114e691906129b3565b60405180910390a36114f9848484611f53565b50505050565b600061152d7f360894a13ba1a3210667c828492db98dca3e2076cc3735a920a3ca505d382bbc60001b611f58565b60000160009054906101000a900473ffffffffffffffffffffffffffffffffffffffff16905090565b61155e6110a8565b73ffffffffffffffffffffffffffffffffffffffff1661157c610d64565b73ffffffffffffffffffffffffffffffffffffffff16146115d2576040517f08c379a00000000000000000000000000000000000000000000000000000000081526004016115c990612f95565b60405180910390fd5b50565b60006115df6114ff565b90506115ea84611f62565b6000835111806115f75750815b1561160857611606848461201b565b505b60006116367f4910fdfa16fed3260ed0e7147f7cc6da11a60208b5b9406d12a635614ffd914360001b6120ff565b90508060000160009054906101000a900460ff1661179f5760018160000160006101000a81548160ff02191690831515021790555061170285836040516024016116809190612c52565b6040516020818303038152906040527f3659cfe6000000000000000000000000000000000000000000000000000000007bffffffffffffffffffffffffffffffffffffffffffffffffffffffff19166020820180517bffffffffffffffffffffffffffffffffffffffffffffffffffffffff838183161783525050505061201b565b5060008160000160006101000a81548160ff0219169083151502179055506117286114ff565b73ffffffffffffffffffffffffffffffffffffffff168273ffffffffffffffffffffffffffffffffffffffff1614611795576040517f08c379a000000000000000000000000000000000000000000000000000000000815260040161178c90613721565b60405180910390fd5b61179e85612109565b5b5050505050565b600073ffffffffffffffffffffffffffffffffffffffff168273ffffffffffffffffffffffffffffffffffffffff161415611816576040517f08c379a000000000000000000000000000000000000000000000000000000000815260040161180d9061378d565b60405180910390fd5b61182260008383611f4e565b80603560008282546118349190612ef3565b9250508190555080603360008473ffffffffffffffffffffffffffffffffffffffff1673ffffffffffffffffffffffffffffffffffffffff168152602001908152602001600020600082825461188a9190612ef3565b925050819055508173ffffffffffffffffffffffffffffffffffffffff16600073ffffffffffffffffffffffffffffffffffffffff167fddf252ad1be2c89b69c2b068fc378daa952ba7f163c4a11628f55a4df523b3ef836040516118ef91906129b3565b60405180910390a361190360008383611f53565b5050565b600073ffffffffffffffffffffffffffffffffffffffff168273ffffffffffffffffffffffffffffffffffffffff161415611977576040517f08c379a000000000000000000000000000000000000000000000000000000000815260040161196e9061381f565b60405180910390fd5b61198382600083611f4e565b6000603360008473ffffffffffffffffffffffffffffffffffffffff1673ffffffffffffffffffffffffffffffffffffffff16815260200190815260200160002054905081811015611a0a576040517f08c379a0000000000000000000000000000000000000000000000000000000008152600401611a01906138b1565b60405180910390fd5b818103603360008573ffffffffffffffffffffffffffffffffffffffff1673ffffffffffffffffffffffffffffffffffffffff168152602001908152602001600020819055508160356000828254611a6291906138d1565b92505081905550600073ffffffffffffffffffffffffffffffffffffffff168373ffffffffffffffffffffffffffffffffffffffff167fddf252ad1be2c89b69c2b068fc378daa952ba7f163c4a11628f55a4df523b3ef84604051611ac791906129b3565b60405180910390a3611adb83600084611f53565b505050565b6000609760009054906101000a900473ffffffffffffffffffffffffffffffffffffffff16905081609760006101000a81548173ffffffffffffffffffffffffffffffffffffffff021916908373ffffffffffffffffffffffffffffffffffffffff1602179055508173ffffffffffffffffffffffffffffffffffffffff168173ffffffffffffffffffffffffffffffffffffffff167f8be0079c531659141344cd1fd0a4f28419497f9722a3daafe3b4186f6b6457e060405160405180910390a35050565b600060019054906101000a900460ff1680611bcc575060008054906101000a900460ff16155b611c0b576040517f08c379a0000000000000000000000000000000000000000000000000000000008152600401611c02906130b9565b60405180910390fd5b60008060019054906101000a900460ff161590508015611c5b576001600060016101000a81548160ff02191690831515021790555060016000806101000a81548160ff0219169083151502179055505b611c63612158565b611c6d8383612231565b8015611c8e5760008060016101000a81548160ff0219169083151502179055505b505050565b600060019054906101000a900460ff1680611cb9575060008054906101000a900460ff16155b611cf8576040517f08c379a0000000000000000000000000000000000000000000000000000000008152600401611cef906130b9565b60405180910390fd5b60008060019054906101000a900460ff161590508015611d48576001600060016101000a81548160ff02191690831515021790555060016000806101000a81548160ff0219169083151502179055505b611d50612158565b611d5861233a565b8015611d795760008060016101000a81548160ff0219169083151502179055505b50565b600060019054906101000a900460ff1680611da2575060008054906101000a900460ff16155b611de1576040517f08c379a0000000000000000000000000000000000000000000000000000000008152600401611dd8906130b9565b60405180910390fd5b60008060019054906101000a900460ff161590508015611e31576001600060016101000a81548160ff02191690831515021790555060016000806101000a81548160ff0219169083151502179055505b611e39612158565b611e41612413565b8015611e625760008060016101000a81548160ff0219169083151502179055505b50565b600060019054906101000a900460ff1680611e8b575060008054906101000a900460ff16155b611eca576040517f08c379a0000000000000000000000000000000000000000000000000000000008152600401611ec1906130b9565b60405180910390fd5b60008060019054906101000a900460ff161590508015611f1a576001600060016101000a81548160ff02191690831515021790555060016000806101000a81548160ff0219169083151502179055505b611f226124fc565b611f2a6125d5565b8015611f4b5760008060016101000a81548160ff0219169083151502179055505b50565b505050565b505050565b6000819050919050565b611f6b816126ae565b611faa576040517f08c379a0000000000000000000000000000000000000000000000000000000008152600401611fa190613977565b60405180910390fd5b80611fd77f360894a13ba1a3210667c828492db98dca3e2076cc3735a920a3ca505d382bbc60001b611f58565b60000160006101000a81548173ffffffffffffffffffffffffffffffffffffffff021916908373ffffffffffffffffffffffffffffffffffffffff16021790555050565b6060612026836126ae565b612065576040517f08c379a000000000000000000000000000000000000000000000000000000000815260040161205c90613a09565b60405180910390fd5b6000808473ffffffffffffffffffffffffffffffffffffffff168460405161208d9190613a70565b600060405180830381855af49150503d80600081146120c8576040519150601f19603f3d011682016040523d82523d6000602084013e6120cd565b606091505b50915091506120f58282604051806060016040528060278152602001613a88602791396126c1565b9250505092915050565b6000819050919050565b61211281611f62565b8073ffffffffffffffffffffffffffffffffffffffff167fbc7cd75a20ee27fd9adebab32041f755214dbc6bffa90cc0225b39da2e5c2d3b60405160405180910390a250565b600060019054906101000a900460ff168061217e575060008054906101000a900460ff16155b6121bd576040517f08c379a00000000000000000000000000000000000000000000000000000000081526004016121b4906130b9565b60405180910390fd5b60008060019054906101000a900460ff16159050801561220d576001600060016101000a81548160ff02191690831515021790555060016000806101000a81548160ff0219169083151502179055505b801561222e5760008060016101000a81548160ff0219169083151502179055505b50565b600060019054906101000a900460ff1680612257575060008054906101000a900460ff16155b612296576040517f08c379a000000000000000000000000000000000000000000000000000000000815260040161228d906130b9565b60405180910390fd5b60008060019054906101000a900460ff1615905080156122e6576001600060016101000a81548160ff02191690831515021790555060016000806101000a81548160ff0219169083151502179055505b82603690805190602001906122fc929190612728565b508160379080519060200190612313929190612728565b5080156123355760008060016101000a81548160ff0219169083151502179055505b505050565b600060019054906101000a900460ff1680612360575060008054906101000a900460ff16155b61239f576040517f08c379a0000000000000000000000000000000000000000000000000000000008152600401612396906130b9565b60405180910390fd5b60008060019054906101000a900460ff1615905080156123ef576001600060016101000a81548160ff02191690831515021790555060016000806101000a81548160ff0219169083151502179055505b80156124105760008060016101000a81548160ff0219169083151502179055505b50565b600060019054906101000a900460ff1680612439575060008054906101000a900460ff16155b612478576040517f08c379a000000000000000000000000000000000000000000000000000000000815260040161246f906130b9565b60405180910390fd5b60008060019054906101000a900460ff1615905080156124c8576001600060016101000a81548160ff02191690831515021790555060016000806101000a81548160ff0219169083151502179055505b6124d86124d36110a8565b611ae0565b80156124f95760008060016101000a81548160ff0219169083151502179055505b50565b600060019054906101000a900460ff1680612522575060008054906101000a900460ff16155b612561576040517f08c379a0000000000000000000000000000000000000000000000000000000008152600401612558906130b9565b60405180910390fd5b60008060019054906101000a900460ff1615905080156125b1576001600060016101000a81548160ff02191690831515021790555060016000806101000a81548160ff0219169083151502179055505b80156125d25760008060016101000a81548160ff0219169083151502179055505b50565b600060019054906101000a900460ff16806125fb575060008054906101000a900460ff16155b61263a576040517f08c379a0000000000000000000000000000000000000000000000000000000008152600401612631906130b9565b60405180910390fd5b60008060019054906101000a900460ff16159050801561268a576001600060016101000a81548160ff02191690831515021790555060016000806101000a81548160ff0219169083151502179055505b80156126ab5760008060016101000a81548160ff0219169083151502179055505b50565b600080823b905060008111915050919050565b606083156126d157829050612721565b6000835111156126e45782518084602001fd5b816040517f08c379a00000000000000000000000000000000000000000000000000000000081526004016127189190612864565b60405180910390fd5b9392505050565b82805461273490612cdc565b90600052602060002090601f016020900481019282612756576000855561279d565b82601f1061276f57805160ff191683800117855561279d565b8280016001018555821561279d579182015b8281111561279c578251825591602001919060010190612781565b5b5090506127aa91906127ae565b5090565b5b808211156127c75760008160009055506001016127af565b5090565b600081519050919050565b600082825260208201905092915050565b60005b838110156128055780820151818401526020810190506127ea565b83811115612814576000848401525b50505050565b6000601f19601f8301169050919050565b6000612836826127cb565b61284081856127d6565b93506128508185602086016127e7565b6128598161281a565b840191505092915050565b6000602082019050818103600083015261287e818461282b565b905092915050565b6000604051905090565b600080fd5b600080fd5b600073ffffffffffffffffffffffffffffffffffffffff82169050919050565b60006128c58261289a565b9050919050565b6128d5816128ba565b81146128e057600080fd5b50565b6000813590506128f2816128cc565b92915050565b6000819050919050565b61290b816128f8565b811461291657600080fd5b50565b60008135905061292881612902565b92915050565b6000806040838503121561294557612944612890565b5b6000612953858286016128e3565b925050602061296485828601612919565b9150509250929050565b60008115159050919050565b6129838161296e565b82525050565b600060208201905061299e600083018461297a565b92915050565b6129ad816128f8565b82525050565b60006020820190506129c860008301846129a4565b92915050565b6000806000606084860312156129e7576129e6612890565b5b60006129f5868287016128e3565b9350506020612a06868287016128e3565b9250506040612a1786828701612919565b9150509250925092565b600060ff82169050919050565b612a3781612a21565b82525050565b6000602082019050612a526000830184612a2e565b92915050565b600060208284031215612a6e57612a6d612890565b5b6000612a7c848285016128e3565b91505092915050565b600060208284031215612a9b57612a9a612890565b5b6000612aa984828501612919565b91505092915050565b600080fd5b600080fd5b7f4e487b7100000000000000000000000000000000000000000000000000000000600052604160045260246000fd5b612af48261281a565b810181811067ffffffffffffffff82111715612b1357612b12612abc565b5b80604052505050565b6000612b26612886565b9050612b328282612aeb565b919050565b600067ffffffffffffffff821115612b5257612b51612abc565b5b612b5b8261281a565b9050602081019050919050565b82818337600083830152505050565b6000612b8a612b8584612b37565b612b1c565b905082815260208101848484011115612ba657612ba5612ab7565b5b612bb1848285612b68565b509392505050565b600082601f830112612bce57612bcd612ab2565b5b8135612bde848260208601612b77565b91505092915050565b60008060408385031215612bfe57612bfd612890565b5b6000612c0c858286016128e3565b925050602083013567ffffffffffffffff811115612c2d57612c2c612895565b5b612c3985828601612bb9565b9150509250929050565b612c4c816128ba565b82525050565b6000602082019050612c676000830184612c43565b92915050565b60008060408385031215612c8457612c83612890565b5b6000612c92858286016128e3565b9250506020612ca3858286016128e3565b9150509250929050565b7f4e487b7100000000000000000000000000000000000000000000000000000000600052602260045260246000fd5b60006002820490506001821680612cf457607f821691505b60208210811415612d0857612d07612cad565b5b50919050565b7f45524332303a207472616e7366657220616d6f756e742065786365656473206160008201527f6c6c6f77616e6365000000000000000000000000000000000000000000000000602082015250565b6000612d6a6028836127d6565b9150612d7582612d0e565b604082019050919050565b60006020820190508181036000830152612d9981612d5d565b9050919050565b7f46756e6374696f6e206d7573742062652063616c6c6564207468726f7567682060008201527f64656c656761746563616c6c0000000000000000000000000000000000000000602082015250565b6000612dfc602c836127d6565b9150612e0782612da0565b604082019050919050565b60006020820190508181036000830152612e2b81612def565b9050919050565b7f46756e6374696f6e206d7573742062652063616c6c6564207468726f7567682060008201527f6163746976652070726f78790000000000000000000000000000000000000000602082015250565b6000612e8e602c836127d6565b9150612e9982612e32565b604082019050919050565b60006020820190508181036000830152612ebd81612e81565b9050919050565b7f4e487b7100000000000000000000000000000000000000000000000000000000600052601160045260246000fd5b6000612efe826128f8565b9150612f09836128f8565b9250827fffffffffffffffffffffffffffffffffffffffffffffffffffffffffffffffff03821115612f3e57612f3d612ec4565b5b828201905092915050565b7f4f776e61626c653a2063616c6c6572206973206e6f7420746865206f776e6572600082015250565b6000612f7f6020836127d6565b9150612f8a82612f49565b602082019050919050565b60006020820190508181036000830152612fae81612f72565b9050919050565b7f45524332303a206275726e20616d6f756e74206578636565647320616c6c6f7760008201527f616e636500000000000000000000000000000000000000000000000000000000602082015250565b60006130116024836127d6565b915061301c82612fb5565b604082019050919050565b6000602082019050818103600083015261304081613004565b9050919050565b7f496e697469616c697a61626c653a20636f6e747261637420697320616c72656160008201527f647920696e697469616c697a6564000000000000000000000000000000000000602082015250565b60006130a3602e836127d6565b91506130ae82613047565b604082019050919050565b600060208201905081810360008301526130d281613096565b9050919050565b60008160011c9050919050565b6000808291508390505b60018511156131305780860481111561310c5761310b612ec4565b5b600185161561311b5780820291505b8081029050613129856130d9565b94506130f0565b94509492505050565b6000826131495760019050613205565b816131575760009050613205565b816001811461316d5760028114613177576131a6565b6001915050613205565b60ff84111561318957613188612ec4565b5b8360020a9150848211156131a05761319f612ec4565b5b50613205565b5060208310610133831016604e8410600b84101617156131db5782820a9050838111156131d6576131d5612ec4565b5b613205565b6131e884848460016130e6565b925090508184048111156131ff576131fe612ec4565b5b81810290505b9392505050565b6000613217826128f8565b915061322283612a21565b925061324f7fffffffffffffffffffffffffffffffffffffffffffffffffffffffffffffffff8484613139565b905092915050565b6000613262826128f8565b915061326d836128f8565b9250817fffffffffffffffffffffffffffffffffffffffffffffffffffffffffffffffff04831182151516156132a6576132a5612ec4565b5b828202905092915050565b7f45524332303a2064656372656173656420616c6c6f77616e63652062656c6f7760008201527f207a65726f000000000000000000000000000000000000000000000000000000602082015250565b600061330d6025836127d6565b9150613318826132b1565b604082019050919050565b6000602082019050818103600083015261333c81613300565b9050919050565b7f4f776e61626c653a206e6577206f776e657220697320746865207a65726f206160008201527f6464726573730000000000000000000000000000000000000000000000000000602082015250565b600061339f6026836127d6565b91506133aa82613343565b604082019050919050565b600060208201905081810360008301526133ce81613392565b9050919050565b7f45524332303a20617070726f76652066726f6d20746865207a65726f2061646460008201527f7265737300000000000000000000000000000000000000000000000000000000602082015250565b60006134316024836127d6565b915061343c826133d5565b604082019050919050565b6000602082019050818103600083015261346081613424565b9050919050565b7f45524332303a20617070726f766520746f20746865207a65726f20616464726560008201527f7373000000000000000000000000000000000000000000000000000000000000602082015250565b60006134c36022836127d6565b91506134ce82613467565b604082019050919050565b600060208201905081810360008301526134f2816134b6565b9050919050565b7f45524332303a207472616e736665722066726f6d20746865207a65726f20616460008201527f6472657373000000000000000000000000000000000000000000000000000000602082015250565b60006135556025836127d6565b9150613560826134f9565b604082019050919050565b6000602082019050818103600083015261358481613548565b9050919050565b7f45524332303a207472616e7366657220746f20746865207a65726f206164647260008201527f6573730000000000000000000000000000000000000000000000000000000000602082015250565b60006135e76023836127d6565b91506135f28261358b565b604082019050919050565b60006020820190508181036000830152613616816135da565b9050919050565b7f45524332303a207472616e7366657220616d6f756e742065786365656473206260008201527f616c616e63650000000000000000000000000000000000000000000000000000602082015250565b60006136796026836127d6565b91506136848261361d565b604082019050919050565b600060208201905081810360008301526136a88161366c565b9050919050565b7f45524331393637557067726164653a207570677261646520627265616b73206660008201527f7572746865722075706772616465730000000000000000000000000000000000602082015250565b600061370b602f836127d6565b9150613716826136af565b604082019050919050565b6000602082019050818103600083015261373a816136fe565b9050919050565b7f45524332303a206d696e7420746f20746865207a65726f206164647265737300600082015250565b6000613777601f836127d6565b915061378282613741565b602082019050919050565b600060208201905081810360008301526137a68161376a565b9050919050565b7f45524332303a206275726e2066726f6d20746865207a65726f2061646472657360008201527f7300000000000000000000000000000000000000000000000000000000000000602082015250565b60006138096021836127d6565b9150613814826137ad565b604082019050919050565b60006020820190508181036000830152613838816137fc565b9050919050565b7f45524332303a206275726e20616d6f756e7420657863656564732062616c616e60008201527f6365000000000000000000000000000000000000000000000000000000000000602082015250565b600061389b6022836127d6565b91506138a68261383f565b604082019050919050565b600060208201905081810360008301526138ca8161388e565b9050919050565b60006138dc826128f8565b91506138e7836128f8565b9250828210156138fa576138f9612ec4565b5b828203905092915050565b7f455243313936373a206e657720696d706c656d656e746174696f6e206973206e60008201527f6f74206120636f6e747261637400000000000000000000000000000000000000602082015250565b6000613961602d836127d6565b915061396c82613905565b604082019050919050565b6000602082019050818103600083015261399081613954565b9050919050565b7f416464726573733a2064656c65676174652063616c6c20746f206e6f6e2d636f60008201527f6e74726163740000000000000000000000000000000000000000000000000000602082015250565b60006139f36026836127d6565b91506139fe82613997565b604082019050919050565b60006020820190508181036000830152613a22816139e6565b9050919050565b600081519050919050565b600081905092915050565b6000613a4a82613a29565b613a548185613a34565b9350613a648185602086016127e7565b80840191505092915050565b6000613a7c8284613a3f565b91508190509291505056fe416464726573733a206c6f772d6c6576656c2064656c65676174652063616c6c206661696c6564a2646970667358221220154aa273b6cb082a3a7f257e94a15b471c10ff1c9ef3f4056626cada319d0c4264736f6c63430008080033",
  "linkReferences": {},
  "deployedLinkReferences": {}
}