{
  "_format": "hh-sol-artifact-1",
  "contractName": "Sardine",
  "sourceName": "contracts/InflowToken.sol",
  "abi": [
    {
      "anonymous": false,
      "inputs": [
        {
          "indexed": false,
          "internalType": "address",
          "name": "previousAdmin",
          "type": "address"
        },
        {
          "indexed": false,
          "internalType": "address",
          "name": "newAdmin",
          "type": "address"
        }
      ],
      "name": "AdminChanged",
      "type": "event"
    },
    {
      "anonymous": false,
      "inputs": [
        {
          "indexed": true,
          "internalType": "address",
          "name": "owner",
          "type": "address"
        },
        {
          "indexed": true,
          "internalType": "address",
          "name": "spender",
          "type": "address"
        },
        {
          "indexed": false,
          "internalType": "uint256",
          "name": "value",
          "type": "uint256"
        }
      ],
      "name": "Approval",
      "type": "event"
    },
    {
      "anonymous": false,
      "inputs": [
        {
          "indexed": true,
          "internalType": "address",
          "name": "beacon",
          "type": "address"
        }
      ],
      "name": "BeaconUpgraded",
      "type": "event"
    },
    {
      "anonymous": false,
      "inputs": [
        {
          "indexed": true,
          "internalType": "address",
          "name": "previousOwner",
          "type": "address"
        },
        {
          "indexed": true,
          "internalType": "address",
          "name": "newOwner",
          "type": "address"
        }
      ],
      "name": "OwnershipTransferred",
      "type": "event"
    },
    {
      "anonymous": false,
      "inputs": [
        {
          "indexed": true,
          "internalType": "address",
          "name": "from",
          "type": "address"
        },
        {
          "indexed": true,
          "internalType": "address",
          "name": "to",
          "type": "address"
        },
        {
          "indexed": false,
          "internalType": "uint256",
          "name": "value",
          "type": "uint256"
        }
      ],
      "name": "Transfer",
      "type": "event"
    },
    {
      "anonymous": false,
      "inputs": [
        {
          "indexed": true,
          "internalType": "address",
          "name": "implementation",
          "type": "address"
        }
      ],
      "name": "Upgraded",
      "type": "event"
    },
    {
      "inputs": [
        {
          "internalType": "address",
          "name": "owner",
          "type": "address"
        },
        {
          "internalType": "address",
          "name": "spender",
          "type": "address"
        }
      ],
      "name": "allowance",
      "outputs": [
        {
          "internalType": "uint256",
          "name": "",
          "type": "uint256"
        }
      ],
      "stateMutability": "view",
      "type": "function"
    },
    {
      "inputs": [
        {
          "internalType": "address",
          "name": "spender",
          "type": "address"
        },
        {
          "internalType": "uint256",
          "name": "amount",
          "type": "uint256"
        }
      ],
      "name": "approve",
      "outputs": [
        {
          "internalType": "bool",
          "name": "",
          "type": "bool"
        }
      ],
      "stateMutability": "nonpayable",
      "type": "function"
    },
    {
      "inputs": [
        {
          "internalType": "address",
          "name": "account",
          "type": "address"
        }
      ],
      "name": "balanceOf",
      "outputs": [
        {
          "internalType": "uint256",
          "name": "",
          "type": "uint256"
        }
      ],
      "stateMutability": "view",
      "type": "function"
    },
    {
      "inputs": [
        {
          "internalType": "uint256",
          "name": "amount",
          "type": "uint256"
        }
      ],
      "name": "burn",
      "outputs": [],
      "stateMutability": "nonpayable",
      "type": "function"
    },
    {
      "inputs": [
        {
          "internalType": "address",
          "name": "account",
          "type": "address"
        },
        {
          "internalType": "uint256",
          "name": "amount",
          "type": "uint256"
        }
      ],
      "name": "burnFrom",
      "outputs": [],
      "stateMutability": "nonpayable",
      "type": "function"
    },
    {
      "inputs": [],
      "name": "decimals",
      "outputs": [
        {
          "internalType": "uint8",
          "name": "",
          "type": "uint8"
        }
      ],
      "stateMutability": "view",
      "type": "function"
    },
    {
      "inputs": [
        {
          "internalType": "address",
          "name": "spender",
          "type": "address"
        },
        {
          "internalType": "uint256",
          "name": "subtractedValue",
          "type": "uint256"
        }
      ],
      "name": "decreaseAllowance",
      "outputs": [
        {
          "internalType": "bool",
          "name": "",
          "type": "bool"
        }
      ],
      "stateMutability": "nonpayable",
      "type": "function"
    },
    {
      "inputs": [
        {
          "internalType": "address",
          "name": "spender",
          "type": "address"
        },
        {
          "internalType": "uint256",
          "name": "addedValue",
          "type": "uint256"
        }
      ],
      "name": "increaseAllowance",
      "outputs": [
        {
          "internalType": "bool",
          "name": "",
          "type": "bool"
        }
      ],
      "stateMutability": "nonpayable",
      "type": "function"
    },
    {
      "inputs": [],
      "name": "initialize",
      "outputs": [],
      "stateMutability": "nonpayable",
      "type": "function"
    },
    {
      "inputs": [
        {
          "internalType": "address",
          "name": "to",
          "type": "address"
        },
        {
          "internalType": "uint256",
          "name": "amount",
          "type": "uint256"
        }
      ],
      "name": "mint",
      "outputs": [],
      "stateMutability": "nonpayable",
      "type": "function"
    },
    {
      "inputs": [],
      "name": "name",
      "outputs": [
        {
          "internalType": "string",
          "name": "",
          "type": "string"
        }
      ],
      "stateMutability": "view",
      "type": "function"
    },
    {
      "inputs": [],
      "name": "owner",
      "outputs": [
        {
          "internalType": "address",
          "name": "",
          "type": "address"
        }
      ],
      "stateMutability": "view",
      "type": "function"
    },
    {
      "inputs": [],
      "name": "renounceOwnership",
      "outputs": [],
      "stateMutability": "nonpayable",
      "type": "function"
    },
    {
      "inputs": [],
      "name": "symbol",
      "outputs": [
        {
          "internalType": "string",
          "name": "",
          "type": "string"
        }
      ],
      "stateMutability": "view",
      "type": "function"
    },
    {
      "inputs": [],
      "name": "totalSupply",
      "outputs": [
        {
          "internalType": "uint256",
          "name": "",
          "type": "uint256"
        }
      ],
      "stateMutability": "view",
      "type": "function"
    },
    {
      "inputs": [
        {
          "internalType": "address",
          "name": "recipient",
          "type": "address"
        },
        {
          "internalType": "uint256",
          "name": "amount",
          "type": "uint256"
        }
      ],
      "name": "transfer",
      "outputs": [
        {
          "internalType": "bool",
          "name": "",
          "type": "bool"
        }
      ],
      "stateMutability": "nonpayable",
      "type": "function"
    },
    {
      "inputs": [
        {
          "internalType": "address",
          "name": "sender",
          "type": "address"
        },
        {
          "internalType": "address",
          "name": "recipient",
          "type": "address"
        },
        {
          "internalType": "uint256",
          "name": "amount",
          "type": "uint256"
        }
      ],
      "name": "transferFrom",
      "outputs": [
        {
          "internalType": "bool",
          "name": "",
          "type": "bool"
        }
      ],
      "stateMutability": "nonpayable",
      "type": "function"
    },
    {
      "inputs": [
        {
          "internalType": "address",
          "name": "newOwner",
          "type": "address"
        }
      ],
      "name": "transferOwnership",
      "outputs": [],
      "stateMutability": "nonpayable",
      "type": "function"
    },
    {
      "inputs": [
        {
          "internalType": "address",
          "name": "newImplementation",
          "type": "address"
        }
      ],
      "name": "upgradeTo",
      "outputs": [],
      "stateMutability": "nonpayable",
      "type": "function"
    },
    {
      "inputs": [
        {
          "internalType": "address",
          "name": "newImplementation",
          "type": "address"
        },
        {
          "internalType": "bytes",
          "name": "data",
          "type": "bytes"
        }
      ],
      "name": "upgradeToAndCall",
      "outputs": [],
      "stateMutability": "payable",
      "type": "function"
    }
  ],
  "bytecode": "0x60a06040523073ffffffffffffffffffffffffffffffffffffffff1660809073ffffffffffffffffffffffffffffffffffffffff1660601b81525034801561004657600080fd5b5060805160601c613ae461007a6000396000818161067a015281816107090152818161094d01526109dc0152613ae46000f3fe60806040526004361061011f5760003560e01c806370a08231116100a057806395d89b411161006457806395d89b41146103b2578063a457c2d7146103dd578063a9059cbb1461041a578063dd62ed3e14610457578063f2fde38b146104945761011f565b806370a08231146102f3578063715018a61461033057806379cc6790146103475780638129fc1c146103705780638da5cb5b146103875761011f565b80633659cfe6116100e75780633659cfe61461021f578063395093511461024857806340c10f191461028557806342966c68146102ae5780634f1ef286146102d75761011f565b806306fdde0314610124578063095ea7b31461014f57806318160ddd1461018c57806323b872dd146101b7578063313ce567146101f4575b600080fd5b34801561013057600080fd5b506101396104bd565b6040516101469190612d7a565b60405180910390f35b34801561015b57600080fd5b5061017660048036038101906101719190612981565b61054f565b6040516101839190612d5f565b60405180910390f35b34801561019857600080fd5b506101a161056d565b6040516101ae9190612ffc565b60405180910390f35b3480156101c357600080fd5b506101de60048036038101906101d991906128d2565b610577565b6040516101eb9190612d5f565b60405180910390f35b34801561020057600080fd5b5061020961066f565b6040516102169190613017565b60405180910390f35b34801561022b57600080fd5b5061024660048036038101906102419190612865565b610678565b005b34801561025457600080fd5b5061026f600480360381019061026a9190612981565b610801565b60405161027c9190612d5f565b60405180910390f35b34801561029157600080fd5b506102ac60048036038101906102a79190612981565b6108ad565b005b3480156102ba57600080fd5b506102d560048036038101906102d091906129c1565b610937565b005b6102f160048036038101906102ec9190612925565b61094b565b005b3480156102ff57600080fd5b5061031a60048036038101906103159190612865565b610a88565b6040516103279190612ffc565b60405180910390f35b34801561033c57600080fd5b50610345610ad1565b005b34801561035357600080fd5b5061036e60048036038101906103699190612981565b610b59565b005b34801561037c57600080fd5b50610385610bd4565b005b34801561039357600080fd5b5061039c610d64565b6040516103a99190612d44565b60405180910390f35b3480156103be57600080fd5b506103c7610d8e565b6040516103d49190612d7a565b60405180910390f35b3480156103e957600080fd5b5061040460048036038101906103ff9190612981565b610e20565b6040516104119190612d5f565b60405180910390f35b34801561042657600080fd5b50610441600480360381019061043c9190612981565b610f0b565b60405161044e9190612d5f565b60405180910390f35b34801561046357600080fd5b5061047e60048036038101906104799190612892565b610f29565b60405161048b9190612ffc565b60405180910390f35b3480156104a057600080fd5b506104bb60048036038101906104b69190612865565b610fb0565b005b6060603680546104cc906133a6565b80601f01602080910402602001604051908101604052809291908181526020018280546104f8906133a6565b80156105455780601f1061051a57610100808354040283529160200191610545565b820191906000526020600020905b81548152906001019060200180831161052857829003601f168201915b5050505050905090565b600061056361055c6110a8565b84846110b0565b6001905092915050565b6000603554905090565b600061058484848461127b565b6000603460008673ffffffffffffffffffffffffffffffffffffffff1673ffffffffffffffffffffffffffffffffffffffff16815260200190815260200160002060006105cf6110a8565b73ffffffffffffffffffffffffffffffffffffffff1673ffffffffffffffffffffffffffffffffffffffff1681526020019081526020016000205490508281101561064f576040517f08c379a000000000000000000000000000000000000000000000000000000000815260040161064690612edc565b60405180910390fd5b6106638561065b6110a8565b8584036110b0565b60019150509392505050565b60006012905090565b7f000000000000000000000000000000000000000000000000000000000000000073ffffffffffffffffffffffffffffffffffffffff163073ffffffffffffffffffffffffffffffffffffffff161415610707576040517f08c379a00000000000000000000000000000000000000000000000000000000081526004016106fe90612e3c565b60405180910390fd5b7f000000000000000000000000000000000000000000000000000000000000000073ffffffffffffffffffffffffffffffffffffffff166107466114ff565b73ffffffffffffffffffffffffffffffffffffffff161461079c576040517f08c379a000000000000000000000000000000000000000000000000000000000815260040161079390612e7c565b60405180910390fd5b6107a581611556565b6107fe81600067ffffffffffffffff8111156107c4576107c3613467565b5b6040519080825280601f01601f1916602001820160405280156107f65781602001600182028036833780820191505090505b5060006115d5565b50565b60006108a361080e6110a8565b84846034600061081c6110a8565b73ffffffffffffffffffffffffffffffffffffffff1673ffffffffffffffffffffffffffffffffffffffff16815260200190815260200160002060008873ffffffffffffffffffffffffffffffffffffffff1673ffffffffffffffffffffffffffffffffffffffff1681526020019081526020016000205461089e91906130ba565b6110b0565b6001905092915050565b6108b56110a8565b73ffffffffffffffffffffffffffffffffffffffff166108d3610d64565b73ffffffffffffffffffffffffffffffffffffffff1614610929576040517f08c379a000000000000000000000000000000000000000000000000000000000815260040161092090612efc565b60405180910390fd5b61093382826117a6565b5050565b6109486109426110a8565b82611907565b50565b7f000000000000000000000000000000000000000000000000000000000000000073ffffffffffffffffffffffffffffffffffffffff163073ffffffffffffffffffffffffffffffffffffffff1614156109da576040517f08c379a00000000000000000000000000000000000000000000000000000000081526004016109d190612e3c565b60405180910390fd5b7f000000000000000000000000000000000000000000000000000000000000000073ffffffffffffffffffffffffffffffffffffffff16610a196114ff565b73ffffffffffffffffffffffffffffffffffffffff1614610a6f576040517f08c379a0000000000000000000000000000000000000000000000000000000008152600401610a6690612e7c565b60405180910390fd5b610a7882611556565b610a84828260016115d5565b5050565b6000603360008373ffffffffffffffffffffffffffffffffffffffff1673ffffffffffffffffffffffffffffffffffffffff168152602001908152602001600020549050919050565b610ad96110a8565b73ffffffffffffffffffffffffffffffffffffffff16610af7610d64565b73ffffffffffffffffffffffffffffffffffffffff1614610b4d576040517f08c379a0000000000000000000000000000000000000000000000000000000008152600401610b4490612efc565b60405180910390fd5b610b576000611ae0565b565b6000610b6c83610b676110a8565b610f29565b905081811015610bb1576040517f08c379a0000000000000000000000000000000000000000000000000000000008152600401610ba890612f1c565b60405180910390fd5b610bc583610bbd6110a8565b8484036110b0565b610bcf8383611907565b505050565b600060019054906101000a900460ff1680610bfa575060008054906101000a900460ff16155b610c39576040517f08c379a0000000000000000000000000000000000000000000000000000000008152600401610c3090612e9c565b60405180910390fd5b60008060019054906101000a900460ff161590508015610c89576001600060016101000a81548160ff02191690831515021790555060016000806101000a81548160ff0219169083151502179055505b610cfd6040518060400160405280600781526020017f53617264696e65000000000000000000000000000000000000000000000000008152506040518060400160405280600381526020017f5352440000000000000000000000000000000000000000000000000000000000815250611ba6565b610d05611c93565b610d0d611d7c565b610d15611e65565b610d4033610d2161066f565b600a610d2d9190613163565b62989680610d3b9190613281565b6117a6565b8015610d615760008060016101000a81548160ff0219169083151502179055505b50565b6000609760009054906101000a900473ffffffffffffffffffffffffffffffffffffffff16905090565b606060378054610d9d906133a6565b80601f0160208091040260200160405190810160405280929190818152602001828054610dc9906133a6565b8015610e165780601f10610deb57610100808354040283529160200191610e16565b820191906000526020600020905b815481529060010190602001808311610df957829003601f168201915b5050505050905090565b60008060346000610e2f6110a8565b73ffffffffffffffffffffffffffffffffffffffff1673ffffffffffffffffffffffffffffffffffffffff16815260200190815260200160002060008573ffffffffffffffffffffffffffffffffffffffff1673ffffffffffffffffffffffffffffffffffffffff16815260200190815260200160002054905082811015610eec576040517f08c379a0000000000000000000000000000000000000000000000000000000008152600401610ee390612fbc565b60405180910390fd5b610f00610ef76110a8565b858584036110b0565b600191505092915050565b6000610f1f610f186110a8565b848461127b565b6001905092915050565b6000603460008473ffffffffffffffffffffffffffffffffffffffff1673ffffffffffffffffffffffffffffffffffffffff16815260200190815260200160002060008373ffffffffffffffffffffffffffffffffffffffff1673ffffffffffffffffffffffffffffffffffffffff16815260200190815260200160002054905092915050565b610fb86110a8565b73ffffffffffffffffffffffffffffffffffffffff16610fd6610d64565b73ffffffffffffffffffffffffffffffffffffffff161461102c576040517f08c379a000000000000000000000000000000000000000000000000000000000815260040161102390612efc565b60405180910390fd5b600073ffffffffffffffffffffffffffffffffffffffff168173ffffffffffffffffffffffffffffffffffffffff16141561109c576040517f08c379a000000000000000000000000000000000000000000000000000000000815260040161109390612dfc565b60405180910390fd5b6110a581611ae0565b50565b600033905090565b600073ffffffffffffffffffffffffffffffffffffffff168373ffffffffffffffffffffffffffffffffffffffff161415611120576040517f08c379a000000000000000000000000000000000000000000000000000000000815260040161111790612f9c565b60405180910390fd5b600073ffffffffffffffffffffffffffffffffffffffff168273ffffffffffffffffffffffffffffffffffffffff161415611190576040517f08c379a000000000000000000000000000000000000000000000000000000000815260040161118790612e1c565b60405180910390fd5b80603460008573ffffffffffffffffffffffffffffffffffffffff1673ffffffffffffffffffffffffffffffffffffffff16815260200190815260200160002060008473ffffffffffffffffffffffffffffffffffffffff1673ffffffffffffffffffffffffffffffffffffffff168152602001908152602001600020819055508173ffffffffffffffffffffffffffffffffffffffff168373ffffffffffffffffffffffffffffffffffffffff167f8c5be1e5ebec7d5bd14f71427d1e84f3dd0314c0f7b2291e5b200ac8c7c3b9258360405161126e9190612ffc565b60405180910390a3505050565b600073ffffffffffffffffffffffffffffffffffffffff168373ffffffffffffffffffffffffffffffffffffffff1614156112eb576040517f08c379a00000000000000000000000000000000000000000000000000000000081526004016112e290612f7c565b60405180910390fd5b600073ffffffffffffffffffffffffffffffffffffffff168273ffffffffffffffffffffffffffffffffffffffff16141561135b576040517f08c379a000000000000000000000000000000000000000000000000000000000815260040161135290612d9c565b60405180910390fd5b611366838383611f4e565b6000603360008573ffffffffffffffffffffffffffffffffffffffff1673ffffffffffffffffffffffffffffffffffffffff168152602001908152602001600020549050818110156113ed576040517f08c379a00000000000000000000000000000000000000000000000000000000081526004016113e490612e5c565b60405180910390fd5b818103603360008673ffffffffffffffffffffffffffffffffffffffff1673ffffffffffffffffffffffffffffffffffffffff1681526020019081526020016000208190555081603360008573ffffffffffffffffffffffffffffffffffffffff1673ffffffffffffffffffffffffffffffffffffffff168152602001908152602001600020600082825461148291906130ba565b925050819055508273ffffffffffffffffffffffffffffffffffffffff168473ffffffffffffffffffffffffffffffffffffffff167fddf252ad1be2c89b69c2b068fc378daa952ba7f163c4a11628f55a4df523b3ef846040516114e69190612ffc565b60405180910390a36114f9848484611f53565b50505050565b600061152d7f360894a13ba1a3210667c828492db98dca3e2076cc3735a920a3ca505d382bbc60001b611f58565b60000160009054906101000a900473ffffffffffffffffffffffffffffffffffffffff16905090565b61155e6110a8565b73ffffffffffffffffffffffffffffffffffffffff1661157c610d64565b73ffffffffffffffffffffffffffffffffffffffff16146115d2576040517f08c379a00000000000000000000000000000000000000000000000000000000081526004016115c990612efc565b60405180910390fd5b50565b60006115df6114ff565b90506115ea84611f62565b6000835111806115f75750815b1561160857611606848461201b565b505b60006116367f4910fdfa16fed3260ed0e7147f7cc6da11a60208b5b9406d12a635614ffd914360001b6120ff565b90508060000160009054906101000a900460ff1661179f5760018160000160006101000a81548160ff02191690831515021790555061170285836040516024016116809190612d44565b6040516020818303038152906040527f3659cfe6000000000000000000000000000000000000000000000000000000007bffffffffffffffffffffffffffffffffffffffffffffffffffffffff19166020820180517bffffffffffffffffffffffffffffffffffffffffffffffffffffffff838183161783525050505061201b565b5060008160000160006101000a81548160ff0219169083151502179055506117286114ff565b73ffffffffffffffffffffffffffffffffffffffff168273ffffffffffffffffffffffffffffffffffffffff1614611795576040517f08c379a000000000000000000000000000000000000000000000000000000000815260040161178c90612ddc565b60405180910390fd5b61179e85612109565b5b5050505050565b600073ffffffffffffffffffffffffffffffffffffffff168273ffffffffffffffffffffffffffffffffffffffff161415611816576040517f08c379a000000000000000000000000000000000000000000000000000000000815260040161180d90612fdc565b60405180910390fd5b61182260008383611f4e565b806035600082825461183491906130ba565b9250508190555080603360008473ffffffffffffffffffffffffffffffffffffffff1673ffffffffffffffffffffffffffffffffffffffff168152602001908152602001600020600082825461188a91906130ba565b925050819055508173ffffffffffffffffffffffffffffffffffffffff16600073ffffffffffffffffffffffffffffffffffffffff167fddf252ad1be2c89b69c2b068fc378daa952ba7f163c4a11628f55a4df523b3ef836040516118ef9190612ffc565b60405180910390a361190360008383611f53565b5050565b600073ffffffffffffffffffffffffffffffffffffffff168273ffffffffffffffffffffffffffffffffffffffff161415611977576040517f08c379a000000000000000000000000000000000000000000000000000000000815260040161196e90612f3c565b60405180910390fd5b61198382600083611f4e565b6000603360008473ffffffffffffffffffffffffffffffffffffffff1673ffffffffffffffffffffffffffffffffffffffff16815260200190815260200160002054905081811015611a0a576040517f08c379a0000000000000000000000000000000000000000000000000000000008152600401611a0190612dbc565b60405180910390fd5b818103603360008573ffffffffffffffffffffffffffffffffffffffff1673ffffffffffffffffffffffffffffffffffffffff168152602001908152602001600020819055508160356000828254611a6291906132db565b92505081905550600073ffffffffffffffffffffffffffffffffffffffff168373ffffffffffffffffffffffffffffffffffffffff167fddf252ad1be2c89b69c2b068fc378daa952ba7f163c4a11628f55a4df523b3ef84604051611ac79190612ffc565b60405180910390a3611adb83600084611f53565b505050565b6000609760009054906101000a900473ffffffffffffffffffffffffffffffffffffffff16905081609760006101000a81548173ffffffffffffffffffffffffffffffffffffffff021916908373ffffffffffffffffffffffffffffffffffffffff1602179055508173ffffffffffffffffffffffffffffffffffffffff168173ffffffffffffffffffffffffffffffffffffffff167f8be0079c531659141344cd1fd0a4f28419497f9722a3daafe3b4186f6b6457e060405160405180910390a35050565b600060019054906101000a900460ff1680611bcc575060008054906101000a900460ff16155b611c0b576040517f08c379a0000000000000000000000000000000000000000000000000000000008152600401611c0290612e9c565b60405180910390fd5b60008060019054906101000a900460ff161590508015611c5b576001600060016101000a81548160ff02191690831515021790555060016000806101000a81548160ff0219169083151502179055505b611c63612158565b611c6d8383612231565b8015611c8e5760008060016101000a81548160ff0219169083151502179055505b505050565b600060019054906101000a900460ff1680611cb9575060008054906101000a900460ff16155b611cf8576040517f08c379a0000000000000000000000000000000000000000000000000000000008152600401611cef90612e9c565b60405180910390fd5b60008060019054906101000a900460ff161590508015611d48576001600060016101000a81548160ff02191690831515021790555060016000806101000a81548160ff0219169083151502179055505b611d50612158565b611d5861233a565b8015611d795760008060016101000a81548160ff0219169083151502179055505b50565b600060019054906101000a900460ff1680611da2575060008054906101000a900460ff16155b611de1576040517f08c379a0000000000000000000000000000000000000000000000000000000008152600401611dd890612e9c565b60405180910390fd5b60008060019054906101000a900460ff161590508015611e31576001600060016101000a81548160ff02191690831515021790555060016000806101000a81548160ff0219169083151502179055505b611e39612158565b611e41612413565b8015611e625760008060016101000a81548160ff0219169083151502179055505b50565b600060019054906101000a900460ff1680611e8b575060008054906101000a900460ff16155b611eca576040517f08c379a0000000000000000000000000000000000000000000000000000000008152600401611ec190612e9c565b60405180910390fd5b60008060019054906101000a900460ff161590508015611f1a576001600060016101000a81548160ff02191690831515021790555060016000806101000a81548160ff0219169083151502179055505b611f226124fc565b611f2a6125d5565b8015611f4b5760008060016101000a81548160ff0219169083151502179055505b50565b505050565b505050565b6000819050919050565b611f6b816126ae565b611faa576040517f08c379a0000000000000000000000000000000000000000000000000000000008152600401611fa190612ebc565b60405180910390fd5b80611fd77f360894a13ba1a3210667c828492db98dca3e2076cc3735a920a3ca505d382bbc60001b611f58565b60000160006101000a81548173ffffffffffffffffffffffffffffffffffffffff021916908373ffffffffffffffffffffffffffffffffffffffff16021790555050565b6060612026836126ae565b612065576040517f08c379a000000000000000000000000000000000000000000000000000000000815260040161205c90612f5c565b60405180910390fd5b6000808473ffffffffffffffffffffffffffffffffffffffff168460405161208d9190612d2d565b600060405180830381855af49150503d80600081146120c8576040519150601f19603f3d011682016040523d82523d6000602084013e6120cd565b606091505b50915091506120f58282604051806060016040528060278152602001613a88602791396126c1565b9250505092915050565b6000819050919050565b61211281611f62565b8073ffffffffffffffffffffffffffffffffffffffff167fbc7cd75a20ee27fd9adebab32041f755214dbc6bffa90cc0225b39da2e5c2d3b60405160405180910390a250565b600060019054906101000a900460ff168061217e575060008054906101000a900460ff16155b6121bd576040517f08c379a00000000000000000000000000000000000000000000000000000000081526004016121b490612e9c565b60405180910390fd5b60008060019054906101000a900460ff16159050801561220d576001600060016101000a81548160ff02191690831515021790555060016000806101000a81548160ff0219169083151502179055505b801561222e5760008060016101000a81548160ff0219169083151502179055505b50565b600060019054906101000a900460ff1680612257575060008054906101000a900460ff16155b612296576040517f08c379a000000000000000000000000000000000000000000000000000000000815260040161228d90612e9c565b60405180910390fd5b60008060019054906101000a900460ff1615905080156122e6576001600060016101000a81548160ff02191690831515021790555060016000806101000a81548160ff0219169083151502179055505b82603690805190602001906122fc929190612728565b508160379080519060200190612313929190612728565b5080156123355760008060016101000a81548160ff0219169083151502179055505b505050565b600060019054906101000a900460ff1680612360575060008054906101000a900460ff16155b61239f576040517f08c379a000000000000000000000000000000000000000000000000000000000815260040161239690612e9c565b60405180910390fd5b60008060019054906101000a900460ff1615905080156123ef576001600060016101000a81548160ff02191690831515021790555060016000806101000a81548160ff0219169083151502179055505b80156124105760008060016101000a81548160ff0219169083151502179055505b50565b600060019054906101000a900460ff1680612439575060008054906101000a900460ff16155b612478576040517f08c379a000000000000000000000000000000000000000000000000000000000815260040161246f90612e9c565b60405180910390fd5b60008060019054906101000a900460ff1615905080156124c8576001600060016101000a81548160ff02191690831515021790555060016000806101000a81548160ff0219169083151502179055505b6124d86124d36110a8565b611ae0565b80156124f95760008060016101000a81548160ff0219169083151502179055505b50565b600060019054906101000a900460ff1680612522575060008054906101000a900460ff16155b612561576040517f08c379a000000000000000000000000000000000000000000000000000000000815260040161255890612e9c565b60405180910390fd5b60008060019054906101000a900460ff1615905080156125b1576001600060016101000a81548160ff02191690831515021790555060016000806101000a81548160ff0219169083151502179055505b80156125d25760008060016101000a81548160ff0219169083151502179055505b50565b600060019054906101000a900460ff16806125fb575060008054906101000a900460ff16155b61263a576040517f08c379a000000000000000000000000000000000000000000000000000000000815260040161263190612e9c565b60405180910390fd5b60008060019054906101000a900460ff16159050801561268a576001600060016101000a81548160ff02191690831515021790555060016000806101000a81548160ff0219169083151502179055505b80156126ab5760008060016101000a81548160ff0219169083151502179055505b50565b600080823b905060008111915050919050565b606083156126d157829050612721565b6000835111156126e45782518084602001fd5b816040517f08c379a00000000000000000000000000000000000000000000000000000000081526004016127189190612d7a565b60405180910390fd5b9392505050565b828054612734906133a6565b90600052602060002090601f016020900481019282612756576000855561279d565b82601f1061276f57805160ff191683800117855561279d565b8280016001018555821561279d579182015b8281111561279c578251825591602001919060010190612781565b5b5090506127aa91906127ae565b5090565b5b808211156127c75760008160009055506001016127af565b5090565b60006127de6127d984613057565b613032565b9050828152602081018484840111156127fa576127f961349b565b5b612805848285613364565b509392505050565b60008135905061281c81613a59565b92915050565b600082601f83011261283757612836613496565b5b81356128478482602086016127cb565b91505092915050565b60008135905061285f81613a70565b92915050565b60006020828403121561287b5761287a6134a5565b5b60006128898482850161280d565b91505092915050565b600080604083850312156128a9576128a86134a5565b5b60006128b78582860161280d565b92505060206128c88582860161280d565b9150509250929050565b6000806000606084860312156128eb576128ea6134a5565b5b60006128f98682870161280d565b935050602061290a8682870161280d565b925050604061291b86828701612850565b9150509250925092565b6000806040838503121561293c5761293b6134a5565b5b600061294a8582860161280d565b925050602083013567ffffffffffffffff81111561296b5761296a6134a0565b5b61297785828601612822565b9150509250929050565b60008060408385031215612998576129976134a5565b5b60006129a68582860161280d565b92505060206129b785828601612850565b9150509250929050565b6000602082840312156129d7576129d66134a5565b5b60006129e584828501612850565b91505092915050565b6129f78161330f565b82525050565b612a0681613321565b82525050565b6000612a1782613088565b612a21818561309e565b9350612a31818560208601613373565b80840191505092915050565b6000612a4882613093565b612a5281856130a9565b9350612a62818560208601613373565b612a6b816134aa565b840191505092915050565b6000612a836023836130a9565b9150612a8e826134c8565b604082019050919050565b6000612aa66022836130a9565b9150612ab182613517565b604082019050919050565b6000612ac9602f836130a9565b9150612ad482613566565b604082019050919050565b6000612aec6026836130a9565b9150612af7826135b5565b604082019050919050565b6000612b0f6022836130a9565b9150612b1a82613604565b604082019050919050565b6000612b32602c836130a9565b9150612b3d82613653565b604082019050919050565b6000612b556026836130a9565b9150612b60826136a2565b604082019050919050565b6000612b78602c836130a9565b9150612b83826136f1565b604082019050919050565b6000612b9b602e836130a9565b9150612ba682613740565b604082019050919050565b6000612bbe602d836130a9565b9150612bc98261378f565b604082019050919050565b6000612be16028836130a9565b9150612bec826137de565b604082019050919050565b6000612c046020836130a9565b9150612c0f8261382d565b602082019050919050565b6000612c276024836130a9565b9150612c3282613856565b604082019050919050565b6000612c4a6021836130a9565b9150612c55826138a5565b604082019050919050565b6000612c6d6026836130a9565b9150612c78826138f4565b604082019050919050565b6000612c906025836130a9565b9150612c9b82613943565b604082019050919050565b6000612cb36024836130a9565b9150612cbe82613992565b604082019050919050565b6000612cd66025836130a9565b9150612ce1826139e1565b604082019050919050565b6000612cf9601f836130a9565b9150612d0482613a30565b602082019050919050565b612d188161334d565b82525050565b612d2781613357565b82525050565b6000612d398284612a0c565b915081905092915050565b6000602082019050612d5960008301846129ee565b92915050565b6000602082019050612d7460008301846129fd565b92915050565b60006020820190508181036000830152612d948184612a3d565b905092915050565b60006020820190508181036000830152612db581612a76565b9050919050565b60006020820190508181036000830152612dd581612a99565b9050919050565b60006020820190508181036000830152612df581612abc565b9050919050565b60006020820190508181036000830152612e1581612adf565b9050919050565b60006020820190508181036000830152612e3581612b02565b9050919050565b60006020820190508181036000830152612e5581612b25565b9050919050565b60006020820190508181036000830152612e7581612b48565b9050919050565b60006020820190508181036000830152612e9581612b6b565b9050919050565b60006020820190508181036000830152612eb581612b8e565b9050919050565b60006020820190508181036000830152612ed581612bb1565b9050919050565b60006020820190508181036000830152612ef581612bd4565b9050919050565b60006020820190508181036000830152612f1581612bf7565b9050919050565b60006020820190508181036000830152612f3581612c1a565b9050919050565b60006020820190508181036000830152612f5581612c3d565b9050919050565b60006020820190508181036000830152612f7581612c60565b9050919050565b60006020820190508181036000830152612f9581612c83565b9050919050565b60006020820190508181036000830152612fb581612ca6565b9050919050565b60006020820190508181036000830152612fd581612cc9565b9050919050565b60006020820190508181036000830152612ff581612cec565b9050919050565b60006020820190506130116000830184612d0f565b92915050565b600060208201905061302c6000830184612d1e565b92915050565b600061303c61304d565b905061304882826133d8565b919050565b6000604051905090565b600067ffffffffffffffff82111561307257613071613467565b5b61307b826134aa565b9050602081019050919050565b600081519050919050565b600081519050919050565b600081905092915050565b600082825260208201905092915050565b60006130c58261334d565b91506130d08361334d565b9250827fffffffffffffffffffffffffffffffffffffffffffffffffffffffffffffffff0382111561310557613104613409565b5b828201905092915050565b6000808291508390505b600185111561315a5780860481111561313657613135613409565b5b60018516156131455780820291505b8081029050613153856134bb565b945061311a565b94509492505050565b600061316e8261334d565b915061317983613357565b92506131a67fffffffffffffffffffffffffffffffffffffffffffffffffffffffffffffffff84846131ae565b905092915050565b6000826131be576001905061327a565b816131cc576000905061327a565b81600181146131e257600281146131ec5761321b565b600191505061327a565b60ff8411156131fe576131fd613409565b5b8360020a91508482111561321557613214613409565b5b5061327a565b5060208310610133831016604e8410600b84101617156132505782820a90508381111561324b5761324a613409565b5b61327a565b61325d8484846001613110565b9250905081840481111561327457613273613409565b5b81810290505b9392505050565b600061328c8261334d565b91506132978361334d565b9250817fffffffffffffffffffffffffffffffffffffffffffffffffffffffffffffffff04831182151516156132d0576132cf613409565b5b828202905092915050565b60006132e68261334d565b91506132f18361334d565b92508282101561330457613303613409565b5b828203905092915050565b600061331a8261332d565b9050919050565b60008115159050919050565b600073ffffffffffffffffffffffffffffffffffffffff82169050919050565b6000819050919050565b600060ff82169050919050565b82818337600083830152505050565b60005b83811015613391578082015181840152602081019050613376565b838111156133a0576000848401525b50505050565b600060028204905060018216806133be57607f821691505b602082108114156133d2576133d1613438565b5b50919050565b6133e1826134aa565b810181811067ffffffffffffffff82111715613400576133ff613467565b5b80604052505050565b7f4e487b7100000000000000000000000000000000000000000000000000000000600052601160045260246000fd5b7f4e487b7100000000000000000000000000000000000000000000000000000000600052602260045260246000fd5b7f4e487b7100000000000000000000000000000000000000000000000000000000600052604160045260246000fd5b600080fd5b600080fd5b600080fd5b600080fd5b6000601f19601f8301169050919050565b60008160011c9050919050565b7f45524332303a207472616e7366657220746f20746865207a65726f206164647260008201527f6573730000000000000000000000000000000000000000000000000000000000602082015250565b7f45524332303a206275726e20616d6f756e7420657863656564732062616c616e60008201527f6365000000000000000000000000000000000000000000000000000000000000602082015250565b7f45524331393637557067726164653a207570677261646520627265616b73206660008201527f7572746865722075706772616465730000000000000000000000000000000000602082015250565b7f4f776e61626c653a206e6577206f776e657220697320746865207a65726f206160008201527f6464726573730000000000000000000000000000000000000000000000000000602082015250565b7f45524332303a20617070726f766520746f20746865207a65726f20616464726560008201527f7373000000000000000000000000000000000000000000000000000000000000602082015250565b7f46756e6374696f6e206d7573742062652063616c6c6564207468726f7567682060008201527f64656c656761746563616c6c0000000000000000000000000000000000000000602082015250565b7f45524332303a207472616e7366657220616d6f756e742065786365656473206260008201527f616c616e63650000000000000000000000000000000000000000000000000000602082015250565b7f46756e6374696f6e206d7573742062652063616c6c6564207468726f7567682060008201527f6163746976652070726f78790000000000000000000000000000000000000000602082015250565b7f496e697469616c697a61626c653a20636f6e747261637420697320616c72656160008201527f647920696e697469616c697a6564000000000000000000000000000000000000602082015250565b7f455243313936373a206e657720696d706c656d656e746174696f6e206973206e60008201527f6f74206120636f6e747261637400000000000000000000000000000000000000602082015250565b7f45524332303a207472616e7366657220616d6f756e742065786365656473206160008201527f6c6c6f77616e6365000000000000000000000000000000000000000000000000602082015250565b7f4f776e61626c653a2063616c6c6572206973206e6f7420746865206f776e6572600082015250565b7f45524332303a206275726e20616d6f756e74206578636565647320616c6c6f7760008201527f616e636500000000000000000000000000000000000000000000000000000000602082015250565b7f45524332303a206275726e2066726f6d20746865207a65726f2061646472657360008201527f7300000000000000000000000000000000000000000000000000000000000000602082015250565b7f416464726573733a2064656c65676174652063616c6c20746f206e6f6e2d636f60008201527f6e74726163740000000000000000000000000000000000000000000000000000602082015250565b7f45524332303a207472616e736665722066726f6d20746865207a65726f20616460008201527f6472657373000000000000000000000000000000000000000000000000000000602082015250565b7f45524332303a20617070726f76652066726f6d20746865207a65726f2061646460008201527f7265737300000000000000000000000000000000000000000000000000000000602082015250565b7f45524332303a2064656372656173656420616c6c6f77616e63652062656c6f7760008201527f207a65726f000000000000000000000000000000000000000000000000000000602082015250565b7f45524332303a206d696e7420746f20746865207a65726f206164647265737300600082015250565b613a628161330f565b8114613a6d57600080fd5b50565b613a798161334d565b8114613a8457600080fd5b5056fe416464726573733a206c6f772d6c6576656c2064656c65676174652063616c6c206661696c6564a2646970667358221220ba9b81a8f8c0d152ef344dcd9bacc954188602986f730a65dfa6ee32104c5c2364736f6c63430008070033",
  "linkReferences": {},
  "deployedLinkReferences": {}
}